{
  "address": "0x9f6430f2828999D51ea516299a44111cA71d604c",
  "abi": [
    {
      "inputs": [
        {
          "internalType": "address",
          "name": "_evvmAddress",
          "type": "address"
        },
        {
          "internalType": "address",
          "name": "_ownerOfShop",
          "type": "address"
        }
      ],
      "stateMutability": "nonpayable",
      "type": "constructor"
    },
    {
      "inputs": [
        {
          "internalType": "address",
          "name": "owner",
          "type": "address"
        }
      ],
      "name": "OwnableInvalidOwner",
      "type": "error"
    },
    {
      "inputs": [
        {
          "internalType": "address",
          "name": "account",
          "type": "address"
        }
      ],
      "name": "OwnableUnauthorizedAccount",
      "type": "error"
    },
    {
      "inputs": [],
      "name": "ShopAlreadyRegistered",
      "type": "error"
    },
    {
      "anonymous": false,
      "inputs": [
        {
          "indexed": true,
          "internalType": "address",
          "name": "client",
          "type": "address"
        },
        {
          "indexed": false,
          "internalType": "string",
          "name": "coffeeType",
          "type": "string"
        },
        {
          "indexed": false,
          "internalType": "uint256",
          "name": "quantity",
          "type": "uint256"
        },
        {
          "indexed": false,
          "internalType": "uint64",
          "name": "evvmNonce",
          "type": "uint64"
        }
      ],
      "name": "CoffeeOrdered",
      "type": "event"
    },
    {
      "anonymous": false,
      "inputs": [
        {
          "indexed": true,
          "internalType": "address",
          "name": "to",
          "type": "address"
        },
        {
          "indexed": false,
          "internalType": "euint64",
          "name": "amountEnc",
          "type": "bytes32"
        }
      ],
      "name": "FundsWithdrawn",
      "type": "event"
    },
    {
      "anonymous": false,
      "inputs": [
        {
          "indexed": true,
          "internalType": "address",
          "name": "previousOwner",
          "type": "address"
        },
        {
          "indexed": true,
          "internalType": "address",
          "name": "newOwner",
          "type": "address"
        }
      ],
      "name": "OwnershipTransferred",
      "type": "event"
    },
    {
      "inputs": [
        {
          "internalType": "string",
          "name": "",
          "type": "string"
        }
      ],
      "name": "coffeePrices",
      "outputs": [
        {
          "internalType": "uint256",
          "name": "",
          "type": "uint256"
        }
      ],
      "stateMutability": "view",
      "type": "function"
    },
    {
      "inputs": [],
      "name": "evvmCore",
      "outputs": [
        {
          "internalType": "contract EVVMCore",
          "name": "",
          "type": "address"
        }
      ],
      "stateMutability": "view",
      "type": "function"
    },
    {
      "inputs": [
        {
          "internalType": "address",
          "name": "client",
          "type": "address"
        }
      ],
      "name": "getClientBalance",
      "outputs": [
        {
          "internalType": "euint64",
          "name": "",
          "type": "bytes32"
        }
      ],
      "stateMutability": "view",
      "type": "function"
    },
    {
      "inputs": [
        {
          "internalType": "string",
          "name": "coffeeType",
          "type": "string"
        }
      ],
      "name": "getCoffeePrice",
      "outputs": [
        {
          "internalType": "uint256",
          "name": "",
          "type": "uint256"
        }
      ],
      "stateMutability": "view",
      "type": "function"
    },
    {
      "inputs": [],
      "name": "getShopBalance",
      "outputs": [
        {
          "internalType": "euint64",
          "name": "",
          "type": "bytes32"
        }
      ],
      "stateMutability": "view",
      "type": "function"
    },
    {
      "inputs": [
        {
          "internalType": "address",
          "name": "client",
          "type": "address"
        },
        {
          "internalType": "uint256",
          "name": "nonce",
          "type": "uint256"
        }
      ],
      "name": "isNonceUsed",
      "outputs": [
        {
          "internalType": "bool",
          "name": "",
          "type": "bool"
        }
      ],
      "stateMutability": "view",
      "type": "function"
    },
    {
      "inputs": [],
      "name": "isShopRegistered",
      "outputs": [
        {
          "internalType": "bool",
          "name": "",
          "type": "bool"
        }
      ],
      "stateMutability": "view",
      "type": "function"
    },
    {
      "inputs": [
        {
          "internalType": "address",
          "name": "clientAddress",
          "type": "address"
        },
        {
          "internalType": "string",
          "name": "coffeeType",
          "type": "string"
        },
        {
          "internalType": "uint256",
          "name": "quantity",
          "type": "uint256"
        },
        {
          "internalType": "uint256",
          "name": "paymentTxId",
          "type": "uint256"
        },
        {
          "internalType": "uint256",
          "name": "nonce",
          "type": "uint256"
        },
        {
          "internalType": "uint64",
          "name": "expectedNonce",
          "type": "uint64"
        }
      ],
      "name": "orderCoffee",
      "outputs": [],
      "stateMutability": "nonpayable",
      "type": "function"
    },
    {
      "inputs": [],
      "name": "owner",
      "outputs": [
        {
          "internalType": "address",
          "name": "",
          "type": "address"
        }
      ],
      "stateMutability": "view",
      "type": "function"
    },
    {
      "inputs": [],
      "name": "ownerOfShop",
      "outputs": [
        {
          "internalType": "address",
          "name": "",
          "type": "address"
        }
      ],
      "stateMutability": "view",
      "type": "function"
    },
    {
      "inputs": [
        {
          "internalType": "externalEuint64",
          "name": "initialBalance",
          "type": "bytes32"
        },
        {
          "internalType": "bytes",
          "name": "inputProof",
          "type": "bytes"
        }
      ],
      "name": "registerShopInEVVM",
      "outputs": [],
      "stateMutability": "nonpayable",
      "type": "function"
    },
    {
      "inputs": [],
      "name": "renounceOwnership",
      "outputs": [],
      "stateMutability": "nonpayable",
      "type": "function"
    },
    {
      "inputs": [
        {
          "internalType": "string",
          "name": "coffeeType",
          "type": "string"
        },
        {
          "internalType": "uint256",
          "name": "price",
          "type": "uint256"
        }
      ],
      "name": "setCoffeePrice",
      "outputs": [],
      "stateMutability": "nonpayable",
      "type": "function"
    },
    {
      "inputs": [
        {
          "internalType": "address",
          "name": "newOwner",
          "type": "address"
        }
      ],
      "name": "setShopOwner",
      "outputs": [],
      "stateMutability": "nonpayable",
      "type": "function"
    },
    {
      "inputs": [
        {
          "internalType": "address",
          "name": "newOwner",
          "type": "address"
        }
      ],
      "name": "transferOwnership",
      "outputs": [],
      "stateMutability": "nonpayable",
      "type": "function"
    },
    {
      "inputs": [
        {
          "internalType": "address",
          "name": "to",
          "type": "address"
        },
        {
          "internalType": "externalEuint64",
          "name": "amountEnc",
          "type": "bytes32"
        },
        {
          "internalType": "bytes",
          "name": "inputProof",
          "type": "bytes"
        }
      ],
      "name": "withdrawFunds",
      "outputs": [],
      "stateMutability": "nonpayable",
      "type": "function"
    }
  ],
  "transactionHash": "0xf290fbce99d4df0eeceabaca2f160cdc67bd6f335d9279e93b280d424851a42f",
  "args": [
    "0x2a0D846e689D0d63A5dCeED4Eb695Eca5518145D",
    "0x899b5BdA341044a476350CE30986D31174bc42a1"
  ],
  "numDeployments": 16,
  "solcInputHash": "fcd98f79b7a4860f32a8c2f405a378c8",
  "bytecode": "0x60803461014c5761193790601f38839003908101601f19168201906001600160401b03821183831017610150578083916040958694855283398101031261014c57610055602061004e83610164565b9201610164565b903315610135576003916029915f549160018060a01b03908160018060a01b03199333858716175f55885195823391167f8be0079c531659141344cd1fd0a4f28419497f9722a3daafe3b4186f6b6457e05f80a3168360015416176001551690600254161760025567657370726573736f60c01b81526002602860049283600882015220558060258551646c6174746560d81b8152826005820152205580602a85516963617070756363696e6f60b01b815282600a820152205583519068616d65726963616e6f60b81b825260098201522055516117be90816101798239f35b8251631e4fbdf760e01b81525f6004820152602490fd5b5f80fd5b634e487b7160e01b5f52604160045260245ffd5b51906001600160a01b038216820361014c5756fe60806040526004361015610011575f80fd5b5f803560e01c806309e2e8cd146113e15780630a7072f21461119f5780630b78cc29146111495780632988459e146111205780633844e1c414611021578063715018a614610fc85780638da5cb5b14610fa157806398118f0b14610840578063a22c5b3a146107d3578063c8a47931146107ae578063cab7e8eb14610765578063d17be54914610668578063d79feb1614610213578063e1977bc914610182578063f2fde38b146100f55763f4053a07146100ca575f80fd5b346100f257806003193601126100f2576002546040516001600160a01b039091168152602090f35b80fd5b50346100f25760203660031901126100f25761010f6114d9565b61011761175d565b6001600160a01b03908116908115610169575f54826bffffffffffffffffffffffff60a01b8216175f55167f8be0079c531659141344cd1fd0a4f28419497f9722a3daafe3b4186f6b6457e05f80a380f35b604051631e4fbdf760e01b815260048101849052602490fd5b50346100f25760203660031901126100f25761019c6114d9565b6101a461175d565b6001600160a01b031680156101ce576bffffffffffffffffffffffff60a01b600254161760025580f35b60405162461bcd60e51b815260206004820152601f60248201527f4556564d436166653a20696e76616c6964206f776e65722061646472657373006044820152606490fd5b50346100f25760603660031901126100f25761022d6114d9565b6024919082356001600160401b03604480358281116104f5576102549036906004016114ac565b96909461025f61175d565b6001600160a01b039081169586156106195781600154169860405180966301a4380f60e41b8083523060048401528c838860209b8c935afa9283156105d8578b888f938f938d94976105e3575b506040519485938492835260048301525afa9081156105d8578c916105ab575b506102d8831515611711565b801561055d578b9c60409c999a9b9c519263104da8cf60e21b84528460048501528b848a81855afa938415610552578a958d958f938c948f94859361050b575b50604051998a98899788966306d9bff360e51b8852600488015286015284015260a0606484015261034d60a484018b8d6114fc565b9116608483015203925af18015610500576104ce575b509661037587926103c9993691611449565b90837f9e7b61f58c47dc699ac88507c4f5bb9f121c03808c5676a8078fe583e464970154169087604051809b8195829463045fc19560e11b84526004840152338a84015260808b840152608483019061157c565b6005606483015203925af19586156104c357849661048c575b507f9e7b61f58c47dc699ac88507c4f5bb9f121c03808c5676a8078fe583e46497005416803b1561047d57839283926040519485938492630f8e573b60e21b84528a600485015233908401525af1801561048157610469575b50507f7b48b7cbe08e7b3e93bbabdc5af66152d717a4799fc2558daa7b5e3beab2d52a91604051908152a280f35b61047290611415565b61047d57835f61043b565b8380fd5b6040513d84823e3d90fd5b85809297508195503d83116104bc575b6104a68183611428565b810103126104b857869251945f6103e2565b5f80fd5b503d61049c565b6040513d86823e3d90fd5b8790819992993d83116104f9575b6104e68183611428565b810103126104f557965f610363565b8580fd5b503d6104dc565b6040513d89823e3d90fd5b95505097505094905081813d831161054b575b6105288183611428565b81010312610547578a8c948e8c976105408d95611568565b915f610318565b8a80fd5b503d61051e565b6040513d8d823e3d90fd5b60405162461bcd60e51b8152600481018a90526022818901527f4556564d436166653a20726563697069656e74206e6f74207265676973746572818a015261195960f21b6064820152608490fd5b90508881813d83116105d1575b6105c28183611428565b810103126104b857515f6102cc565b503d6105b8565b6040513d8e823e3d90fd5b94509550505081813d8311610612575b6105fd8183611428565b810103126104b857888b888f9351955f6102ac565b503d6105f3565b60405162461bcd60e51b8152602060048201526023818501527f4556564d436166653a20696e76616c696420726563697069656e742061646472818601526265737360e81b6064820152608490fd5b50346100f257806003193601126100f2576001546040516301a4380f60e41b8152306004820152602092916001600160a01b0316908381602481855afa90811561075a57908491849161072b575b506106c2811515611711565b6024604051809481936348232fb160e11b835260048301525afa91821561071f57916106f2575b50604051908152f35b90508181813d8311610718575b6107098183611428565b810103126104b857515f6106e9565b503d6106ff565b604051903d90823e3d90fd5b82819392503d8311610753575b6107428183611428565b810103126104b8578390515f6106b6565b503d610738565b6040513d85823e3d90fd5b50346100f25760403660031901126100f25760209060ff906040906001600160a01b036107906114d9565b16815260038452818120602435825284522054166040519015158152f35b50346100f257806003193601126100f25760206107c96115a0565b6040519015158152f35b50346100f25760403660031901126100f2576004356001600160401b03811161083c5761080490369060040161148e565b61080c61175d565b6108188151151561151c565b602060405191805191829101835e8101906004825260208160243593030190205580f35b5080fd5b50346100f25760c03660031901126100f25761085a6114d9565b6024356001600160401b038111610f9d5761087990369060040161148e565b60a435916001600160401b038316830361047d5760443515610f46576108a18251151561151c565b604051602081845180838701835e810160048152030190205415610f01576001600160a01b0381168452600360209081526040808620608435875290915284205460ff16610ebc576001546040516301a4380f60e41b81526001600160a01b03838116600483015290911690602081602481855afa908115610eb1578691610e7f575b508015610e2a576040516301a4380f60e41b8152306004820152602081602481865afa908115610500578791610df8575b508015610d8d576040516325ad270560e01b815260643560048201529060e082602481875afa918215610d82578892610cbf575b5060c082015115610c655782825103610c0a57602082015103610bb3576001600160401b0360608188169201511603610b595760209060246040518094819363104da8cf60e21b835260048301525afa908115610b4e578591610b10575b5060016001600160401b038516016001600160401b038111610afc576001600160401b03809116911603610aa1577fb7e0e5e9a411ef117e1076c44560f27260266d6a4b5a9500ed1374a32bb6923391610a829160018060a01b0381168652600360205260408620608435875260205260408620600160ff198254161790556001600160401b0360405193849360608552606085019061157c565b6044356020850152951660408301526001600160a01b0316930390a280f35b60405162461bcd60e51b815260206004820152602d60248201527f4556564d436166653a20636c69656e74206e6f6e636520646f6573206e6f742060448201526c1b585d18da081c185e5b595b9d609a1b6064820152608490fd5b634e487b7160e01b86526011600452602486fd5b90506020813d602011610b46575b81610b2b60209383611428565b81010312610b4257610b3c90611568565b5f6109e7565b8480fd5b3d9150610b1e565b6040513d87823e3d90fd5b60405162461bcd60e51b815260206004820152602c60248201527f4556564d436166653a207061796d656e74207472616e73616374696f6e206e6f60448201526b0dcc6ca40dad2e6dac2e8c6d60a31b6064820152608490fd5b60405162461bcd60e51b815260206004820152602960248201527f4556564d436166653a207061796d656e74207472616e73616374696f6e206e6f60448201526807420746f2073686f760bc1b6064820152608490fd5b60405162461bcd60e51b815260206004820152602d60248201527f4556564d436166653a207061796d656e74207472616e73616374696f6e206e6f60448201526c1d08199c9bdb4818db1a595b9d609a1b6064820152608490fd5b60405162461bcd60e51b815260206004820152602c60248201527f4556564d436166653a207061796d656e74207472616e73616374696f6e20646f60448201526b195cc81b9bdd08195e1a5cdd60a21b6064820152608490fd5b90915060e0813d60e011610d7a575b81610cdb60e09383611428565b81010312610d7657604051908160e08101106001600160401b0360e084011117610d625760c0610d569160e08401604052805184526020810151602085015260408101516040850152610d3060608201611568565b6060850152610d4160808201611568565b608085015260a081015160a0850152016114ef565b60c0820152905f610989565b634e487b7160e01b5f52604160045260245ffd5b8780fd5b3d9150610cce565b6040513d8a823e3d90fd5b60405162461bcd60e51b815260206004820152603c60248201527f4556564d436166653a2073686f70206d7573742062652072656769737465726560448201527f6420696e204556564d206265666f7265206669727374206f72646572000000006064820152608490fd5b90506020813d602011610e22575b81610e1360209383611428565b810103126104b857515f610955565b3d9150610e06565b60405162461bcd60e51b815260206004820152602760248201527f4556564d436166653a20636c69656e74206e6f74207265676973746572656420604482015266696e204556564d60c81b6064820152608490fd5b90506020813d602011610ea9575b81610e9a60209383611428565b810103126104b857515f610924565b3d9150610e8d565b6040513d88823e3d90fd5b60405162461bcd60e51b815260206004820152601c60248201527f4556564d436166653a206e6f6e636520616c72656164792075736564000000006044820152606490fd5b60405162461bcd60e51b815260206004820152601d60248201527f4556564d436166653a20696e76616c696420636f6666656520747970650000006044820152606490fd5b60405162461bcd60e51b815260206004820152602960248201527f4556564d436166653a207175616e74697479206d75737420626520677265617460448201526806572207468616e20360bc1b6064820152608490fd5b8280fd5b50346100f257806003193601126100f257546040516001600160a01b039091168152602090f35b50346100f257806003193601126100f257610fe161175d565b5f80546001600160a01b0319811682556001600160a01b03167f8be0079c531659141344cd1fd0a4f28419497f9722a3daafe3b4186f6b6457e08280a380f35b50346100f257602090816003193601126100f25761103d6114d9565b6001546040516301a4380f60e41b81526001600160a01b0392831660048201529116908381602481855afa90811561075a5783916110f3575b5080156110ae5783906024604051809481936348232fb160e11b835260048301525afa91821561071f57916106f25750604051908152f35b60405162461bcd60e51b815260048101859052601f60248201527f4556564d436166653a20636c69656e74206e6f742072656769737465726564006044820152606490fd5b90508381813d8311611119575b61110a8183611428565b810103126104b857515f611076565b503d611100565b50346100f257806003193601126100f2576001546040516001600160a01b039091168152602090f35b50346100f25760203660031901126100f257600435906001600160401b0382116100f2576020808061117e366004870161148e565b604051928184925191829101835e8101600481520301902054604051908152f35b50346104b85760403660031901126104b857602480356001600160401b0381116104b8576111d19036906004016114ac565b919060018060a01b03600154166040516301a4380f60e41b815230600482015260209081818681865afa9081156112cc575f916113b4575b508061134c575b50604051637b03603760e01b81523060048201525f858201528181604481865afa9081156112cc575f9161131f575b5060405190630ee05afb60e21b8252600482015281818681865afa9182156112cc575f926112e9575b50506112d757803b156104b8576112ae935f80946040519687958694859363a929cb9760e01b8552306004860152600435908501526060604485015260648401916114fc565b03925af180156112cc576112c0575080f35b6112ca9150611415565b005b6040513d5f823e3d90fd5b60405163a558188160e01b8152600490fd5b90809250813d8311611318575b6113008183611428565b810103126104b857611311906114ef565b5f80611268565b503d6112f6565b90508181813d8311611345575b6113368183611428565b810103126104b857515f61123f565b503d61132c565b60405190630ee05afb60e21b8252600482015281818681865afa9081156112cc575f9161137f575b506112d7575f611210565b90508181813d83116113ad575b6113968183611428565b810103126104b8576113a7906114ef565b5f611374565b503d61138c565b90508181813d83116113da575b6113cb8183611428565b810103126104b857515f611209565b503d6113c1565b346104b85760203660031901126104b8576004356001600160401b0381116104b85760208061117e8193369060040161148e565b6001600160401b038111610d6257604052565b90601f801991011681019081106001600160401b03821117610d6257604052565b9291926001600160401b038211610d625760405191611472601f8201601f191660200184611428565b8294818452818301116104b8578281602093845f960137010152565b9080601f830112156104b8578160206114a993359101611449565b90565b9181601f840112156104b8578235916001600160401b0383116104b857602083818601950101116104b857565b600435906001600160a01b03821682036104b857565b519081151582036104b857565b908060209392818452848401375f828201840152601f01601f1916010190565b1561152357565b60405162461bcd60e51b815260206004820152601e60248201527f4556564d436166653a20636f66666565207479706520726571756972656400006044820152606490fd5b51906001600160401b03821682036104b857565b805180835260209291819084018484015e5f828201840152601f01601f1916010190565b600154604080516301a4380f60e41b815230600482015290916001600160a01b0316906020908181602481865afa9081156116ac579082915f916116e2575b50806116b65750508251637b03603760e01b81523060048201525f60248201528181604481865afa9081156116ac579082915f9161167d575b506024855180958193630ee05afb60e21b835260048301525afa92831561167457505f9261164557505090565b90809250813d831161166d575b61165c8183611428565b810103126104b8576114a9906114ef565b503d611652565b513d5f823e3d90fd5b82819392503d83116116a5575b6116948183611428565b810103126104b8578190515f611618565b503d61168a565b84513d5f823e3d90fd5b6024855180958193630ee05afb60e21b835260048301525afa92831561167457505f9261164557505090565b82819392503d831161170a575b6116f98183611428565b810103126104b8578190515f6115df565b503d6116ef565b1561171857565b60405162461bcd60e51b815260206004820152601d60248201527f4556564d436166653a2073686f70206e6f7420726567697374657265640000006044820152606490fd5b5f546001600160a01b0316330361177057565b60405163118cdaa760e01b8152336004820152602490fdfea2646970667358221220dfbb720b5c0fa2495c52a30c1923701a96bd07f6cfb7fb4b4992973e601e86c864736f6c63430008190033",
  "devdoc": {
    "details": "This contract uses address-based compatibility functions from EVVMCoreAll payment amounts are encrypted using FHE (Fully Homomorphic Encryption)",
    "errors": {
      "OwnableInvalidOwner(address)": [
        {
          "details": "The owner is not a valid owner account. (eg. `address(0)`)"
        }
      ],
      "OwnableUnauthorizedAccount(address)": [
        {
          "details": "The caller account is not authorized to perform an operation."
        }
      ]
    },
    "events": {
      "CoffeeOrdered(address,string,uint256,uint64)": {
        "params": {
          "client": "Address of the client who ordered",
          "coffeeType": "Type of coffee ordered",
          "evvmNonce": "Nonce used in the EVVM transaction",
          "quantity": "Quantity of coffee ordered"
        }
      },
      "FundsWithdrawn(address,bytes32)": {
        "params": {
          "amountEnc": "Encrypted amount withdrawn",
          "to": "Address receiving the funds"
        }
      }
    },
    "kind": "dev",
    "methods": {
      "constructor": {
        "params": {
          "_evvmAddress": "Address of the deployed EVVMCore contract",
          "_ownerOfShop": "Address of the shop owner (can withdraw funds)"
        }
      },
      "getClientBalance(address)": {
        "details": "Frontend must decrypt this using cofhesdkClient.decryptHandle()",
        "params": {
          "client": "Address of the client"
        },
        "returns": {
          "_0": "balance Encrypted balance (euint64)"
        }
      },
      "getCoffeePrice(string)": {
        "params": {
          "coffeeType": "Type of coffee"
        },
        "returns": {
          "_0": "price Price in tokens (plaintext)"
        }
      },
      "getShopBalance()": {
        "details": "Frontend must decrypt this using cofhesdkClient.decryptHandle()",
        "returns": {
          "_0": "balance Encrypted balance (euint64)"
        }
      },
      "isNonceUsed(address,uint256)": {
        "params": {
          "client": "Address of the client",
          "nonce": "Service nonce to check"
        },
        "returns": {
          "_0": "used True if the nonce has been used"
        }
      },
      "isShopRegistered()": {
        "returns": {
          "_0": "registered True if the shop is registered"
        }
      },
      "orderCoffee(address,string,uint256,uint256,uint256,uint64)": {
        "details": "The client must call EVVMCore.requestPay() first from the frontend, then call this function with the txIdThis function verifies that the payment was successful by checking:      - The transaction exists      - The transaction is from the client to the shop      - The nonce matches (proving the payment consumed the expected nonce)      - The client's current nonce is expectedNonce + 1 (proving payment was processed)",
        "params": {
          "clientAddress": "Address of the client placing the order",
          "coffeeType": "Type of coffee (e.g., \"espresso\", \"latte\")",
          "expectedNonce": "The nonce that was used in the payment transaction",
          "nonce": "Service-level nonce to prevent replay attacks",
          "paymentTxId": "Transaction ID from EVVMCore.requestPay() that was called separately",
          "quantity": "Number of coffees to order"
        }
      },
      "owner()": {
        "details": "Returns the address of the current owner."
      },
      "registerShopInEVVM(bytes32,bytes)": {
        "details": "This function should be called during setup to register the shop's address in EVVMThe shop address will be automatically mapped to a vaddrLogic:   1. Check if shop address is already mapped to a vaddr in EVVMCore   2. If mapped, verify the account exists - if yes, revert with ShopAlreadyRegistered   3. If not mapped, generate the vaddr deterministically and check if account exists   4. If account exists via generated vaddr, revert with ShopAlreadyRegistered   5. Otherwise, call registerAccountFromAddress to register the shop",
        "params": {
          "initialBalance": "External encrypted handle for the initial balance (usually zero)",
          "inputProof": "ZK proof validating the encrypted input"
        }
      },
      "renounceOwnership()": {
        "details": "Leaves the contract without owner. It will not be possible to call `onlyOwner` functions. Can only be called by the current owner. NOTE: Renouncing ownership will leave the contract without an owner, thereby disabling any functionality that is only available to the owner."
      },
      "setCoffeePrice(string,uint256)": {
        "params": {
          "coffeeType": "Type of coffee",
          "price": "New price in tokens"
        }
      },
      "setShopOwner(address)": {
        "params": {
          "newOwner": "New owner address"
        }
      },
      "transferOwnership(address)": {
        "details": "Transfers ownership of the contract to a new account (`newOwner`). Can only be called by the current owner."
      },
      "withdrawFunds(address,bytes32,bytes)": {
        "details": "Only the shop owner can call this function",
        "params": {
          "amountEnc": "External encrypted handle for the amount to withdraw",
          "inputProof": "ZK proof validating the encrypted input",
          "to": "Address to receive the funds (must be registered in EVVM)"
        }
      }
    },
    "stateVariables": {
      "coffeePrices": {
        "details": "In a production system, prices could also be encrypted"
      },
      "usedNonces": {
        "details": "Prevents replay attacks on service-level operations"
      }
    },
    "title": "EVVMCafe - Coffee Shop Example on EVVM with FHE",
    "version": 1
  },
  "userdoc": {
    "errors": {
      "ShopAlreadyRegistered()": [
        {
          "notice": "Error thrown when shop is already registered"
        }
      ]
    },
    "events": {
      "CoffeeOrdered(address,string,uint256,uint64)": {
        "notice": "Emitted when a coffee order is placed"
      },
      "FundsWithdrawn(address,bytes32)": {
        "notice": "Emitted when funds are withdrawn from the shop"
      }
    },
    "kind": "user",
    "methods": {
      "coffeePrices(string)": {
        "notice": "Coffee prices (in plaintext for simplicity, could be encrypted)"
      },
      "constructor": {
        "notice": "Deploys EVVMCafe contract"
      },
      "evvmCore()": {
        "notice": "Reference to the EVVM Core contract"
      },
      "getClientBalance(address)": {
        "notice": "Returns the encrypted balance of a client"
      },
      "getCoffeePrice(string)": {
        "notice": "Gets the price of a coffee type"
      },
      "getShopBalance()": {
        "notice": "Returns the encrypted balance of the coffee shop"
      },
      "isNonceUsed(address,uint256)": {
        "notice": "Checks if a service nonce has been used"
      },
      "isShopRegistered()": {
        "notice": "Checks if the shop is registered in EVVM"
      },
      "orderCoffee(address,string,uint256,uint256,uint256,uint64)": {
        "notice": "Places a coffee order after payment has been made via EVVMCore"
      },
      "ownerOfShop()": {
        "notice": "Owner of the coffee shop (can withdraw funds)"
      },
      "registerShopInEVVM(bytes32,bytes)": {
        "notice": "Registers the shop in EVVM Core (must be called before first order)"
      },
      "setCoffeePrice(string,uint256)": {
        "notice": "Sets the price of a coffee type (owner only)"
      },
      "setShopOwner(address)": {
        "notice": "Updates the shop owner address (owner only)"
      },
      "withdrawFunds(address,bytes32,bytes)": {
        "notice": "Withdraws encrypted funds from the shop to the owner"
      }
    },
    "notice": "Example contract demonstrating integration with EVVM Core using encrypted paymentsMigrated from Fhenix CoFHE to Zama FHEVM",
    "version": 1
  },
  "storageLayout": {
    "storage": [
      {
        "astId": 39180,
        "contract": "contracts/examples/EVVMCafe.sol:EVVMCafe",
        "label": "_owner",
        "offset": 0,
        "slot": "0",
        "type": "t_address"
      },
      {
        "astId": 47166,
        "contract": "contracts/examples/EVVMCafe.sol:EVVMCafe",
        "label": "evvmCore",
        "offset": 0,
        "slot": "1",
        "type": "t_contract(EVVMCore)47151"
      },
      {
        "astId": 47169,
        "contract": "contracts/examples/EVVMCafe.sol:EVVMCafe",
        "label": "ownerOfShop",
        "offset": 0,
        "slot": "2",
        "type": "t_address"
      },
      {
        "astId": 47176,
        "contract": "contracts/examples/EVVMCafe.sol:EVVMCafe",
        "label": "usedNonces",
        "offset": 0,
        "slot": "3",
        "type": "t_mapping(t_address,t_mapping(t_uint256,t_bool))"
      },
      {
        "astId": 47181,
        "contract": "contracts/examples/EVVMCafe.sol:EVVMCafe",
        "label": "coffeePrices",
        "offset": 0,
        "slot": "4",
        "type": "t_mapping(t_string_memory_ptr,t_uint256)"
      }
    ],
    "types": {
      "t_address": {
        "encoding": "inplace",
        "label": "address",
        "numberOfBytes": "20"
      },
      "t_bool": {
        "encoding": "inplace",
        "label": "bool",
        "numberOfBytes": "1"
      },
      "t_contract(EVVMCore)47151": {
        "encoding": "inplace",
        "label": "contract EVVMCore",
        "numberOfBytes": "20"
      },
      "t_mapping(t_address,t_mapping(t_uint256,t_bool))": {
        "encoding": "mapping",
        "key": "t_address",
        "label": "mapping(address => mapping(uint256 => bool))",
        "numberOfBytes": "32",
        "value": "t_mapping(t_uint256,t_bool)"
      },
      "t_mapping(t_string_memory_ptr,t_uint256)": {
        "encoding": "mapping",
        "key": "t_string_memory_ptr",
        "label": "mapping(string => uint256)",
        "numberOfBytes": "32",
        "value": "t_uint256"
      },
      "t_mapping(t_uint256,t_bool)": {
        "encoding": "mapping",
        "key": "t_uint256",
        "label": "mapping(uint256 => bool)",
        "numberOfBytes": "32",
        "value": "t_bool"
      },
      "t_string_memory_ptr": {
        "encoding": "bytes",
        "label": "string",
        "numberOfBytes": "32"
      },
      "t_uint256": {
        "encoding": "inplace",
        "label": "uint256",
        "numberOfBytes": "32"
      }
    }
  }
}