{
  "address": "0x2a0D846e689D0d63A5dCeED4Eb695Eca5518145D",
  "abi": [
    {
      "inputs": [
        {
          "internalType": "uint64",
          "name": "_vChainId",
          "type": "uint64"
        },
        {
          "internalType": "uint256",
          "name": "_evvmID",
          "type": "uint256"
        }
      ],
      "stateMutability": "nonpayable",
      "type": "constructor"
    },
    {
      "inputs": [],
      "name": "ECDSAInvalidSignature",
      "type": "error"
    },
    {
      "inputs": [
        {
          "internalType": "uint256",
          "name": "length",
          "type": "uint256"
        }
      ],
      "name": "ECDSAInvalidSignatureLength",
      "type": "error"
    },
    {
      "inputs": [
        {
          "internalType": "bytes32",
          "name": "s",
          "type": "bytes32"
        }
      ],
      "name": "ECDSAInvalidSignatureS",
      "type": "error"
    },
    {
      "inputs": [
        {
          "internalType": "address",
          "name": "owner",
          "type": "address"
        }
      ],
      "name": "OwnableInvalidOwner",
      "type": "error"
    },
    {
      "inputs": [
        {
          "internalType": "address",
          "name": "account",
          "type": "address"
        }
      ],
      "name": "OwnableUnauthorizedAccount",
      "type": "error"
    },
    {
      "inputs": [],
      "name": "ZamaProtocolUnsupported",
      "type": "error"
    },
    {
      "anonymous": false,
      "inputs": [
        {
          "indexed": true,
          "internalType": "address",
          "name": "realAddress",
          "type": "address"
        },
        {
          "indexed": true,
          "internalType": "bytes32",
          "name": "vaddr",
          "type": "bytes32"
        }
      ],
      "name": "AccountRegisteredFromAddress",
      "type": "event"
    },
    {
      "anonymous": false,
      "inputs": [
        {
          "indexed": true,
          "internalType": "bytes32",
          "name": "vaddr",
          "type": "bytes32"
        },
        {
          "indexed": false,
          "internalType": "bool",
          "name": "enabled",
          "type": "bool"
        }
      ],
      "name": "AccountSecretUpdated",
      "type": "event"
    },
    {
      "anonymous": false,
      "inputs": [
        {
          "indexed": false,
          "internalType": "uint256",
          "name": "oldEvvmID",
          "type": "uint256"
        },
        {
          "indexed": false,
          "internalType": "uint256",
          "name": "newEvvmID",
          "type": "uint256"
        }
      ],
      "name": "EvvmIDUpdated",
      "type": "event"
    },
    {
      "anonymous": false,
      "inputs": [
        {
          "indexed": true,
          "internalType": "bytes32",
          "name": "vaddr",
          "type": "bytes32"
        },
        {
          "indexed": false,
          "internalType": "euint64",
          "name": "amountAdded",
          "type": "bytes32"
        }
      ],
      "name": "FaucetBalanceAdded",
      "type": "event"
    },
    {
      "anonymous": false,
      "inputs": [
        {
          "indexed": true,
          "internalType": "address",
          "name": "previousOwner",
          "type": "address"
        },
        {
          "indexed": true,
          "internalType": "address",
          "name": "newOwner",
          "type": "address"
        }
      ],
      "name": "OwnershipTransferred",
      "type": "event"
    },
    {
      "anonymous": false,
      "inputs": [
        {
          "indexed": true,
          "internalType": "bytes32",
          "name": "challengeId",
          "type": "bytes32"
        },
        {
          "indexed": true,
          "internalType": "bytes32",
          "name": "fromVaddr",
          "type": "bytes32"
        },
        {
          "indexed": false,
          "internalType": "string",
          "name": "reason",
          "type": "string"
        }
      ],
      "name": "SecureTransferCancelled",
      "type": "event"
    },
    {
      "anonymous": false,
      "inputs": [
        {
          "indexed": true,
          "internalType": "bytes32",
          "name": "challengeId",
          "type": "bytes32"
        },
        {
          "indexed": true,
          "internalType": "bytes32",
          "name": "fromVaddr",
          "type": "bytes32"
        },
        {
          "indexed": true,
          "internalType": "bytes32",
          "name": "toVaddr",
          "type": "bytes32"
        },
        {
          "indexed": false,
          "internalType": "uint64",
          "name": "nonce",
          "type": "uint64"
        },
        {
          "indexed": false,
          "internalType": "uint256",
          "name": "txId",
          "type": "uint256"
        }
      ],
      "name": "SecureTransferCompleted",
      "type": "event"
    },
    {
      "anonymous": false,
      "inputs": [
        {
          "indexed": true,
          "internalType": "bytes32",
          "name": "challengeId",
          "type": "bytes32"
        },
        {
          "indexed": true,
          "internalType": "bytes32",
          "name": "fromVaddr",
          "type": "bytes32"
        },
        {
          "indexed": true,
          "internalType": "bytes32",
          "name": "toVaddr",
          "type": "bytes32"
        },
        {
          "indexed": false,
          "internalType": "uint256",
          "name": "challengeExpiry",
          "type": "uint256"
        }
      ],
      "name": "SecureTransferRequested",
      "type": "event"
    },
    {
      "anonymous": false,
      "inputs": [
        {
          "indexed": true,
          "internalType": "bytes32",
          "name": "fromVaddr",
          "type": "bytes32"
        },
        {
          "indexed": true,
          "internalType": "bytes32",
          "name": "toVaddr",
          "type": "bytes32"
        },
        {
          "indexed": true,
          "internalType": "address",
          "name": "signer",
          "type": "address"
        },
        {
          "indexed": false,
          "internalType": "uint64",
          "name": "nonce",
          "type": "uint64"
        },
        {
          "indexed": false,
          "internalType": "uint256",
          "name": "deadline",
          "type": "uint256"
        },
        {
          "indexed": false,
          "internalType": "uint256",
          "name": "txId",
          "type": "uint256"
        }
      ],
      "name": "SignedTransferApplied",
      "type": "event"
    },
    {
      "anonymous": false,
      "inputs": [
        {
          "indexed": false,
          "internalType": "bytes32",
          "name": "newCommitment",
          "type": "bytes32"
        }
      ],
      "name": "StateCommitmentUpdated",
      "type": "event"
    },
    {
      "anonymous": false,
      "inputs": [
        {
          "indexed": true,
          "internalType": "bytes32",
          "name": "vaddr",
          "type": "bytes32"
        },
        {
          "indexed": false,
          "internalType": "uint64",
          "name": "initialNonce",
          "type": "uint64"
        }
      ],
      "name": "VirtualAccountRegistered",
      "type": "event"
    },
    {
      "anonymous": false,
      "inputs": [
        {
          "indexed": true,
          "internalType": "uint64",
          "name": "vBlockNumber",
          "type": "uint64"
        },
        {
          "indexed": false,
          "internalType": "bytes32",
          "name": "stateCommitment",
          "type": "bytes32"
        }
      ],
      "name": "VirtualBlockCreated",
      "type": "event"
    },
    {
      "anonymous": false,
      "inputs": [
        {
          "indexed": true,
          "internalType": "bytes32",
          "name": "fromVaddr",
          "type": "bytes32"
        },
        {
          "indexed": true,
          "internalType": "bytes32",
          "name": "toVaddr",
          "type": "bytes32"
        },
        {
          "indexed": false,
          "internalType": "euint64",
          "name": "amountEnc",
          "type": "bytes32"
        },
        {
          "indexed": false,
          "internalType": "uint64",
          "name": "nonce",
          "type": "uint64"
        },
        {
          "indexed": false,
          "internalType": "uint64",
          "name": "vBlockNumber",
          "type": "uint64"
        },
        {
          "indexed": false,
          "internalType": "uint256",
          "name": "txId",
          "type": "uint256"
        }
      ],
      "name": "VirtualTransferApplied",
      "type": "event"
    },
    {
      "inputs": [],
      "name": "CHALLENGE_EXPIRY",
      "outputs": [
        {
          "internalType": "uint256",
          "name": "",
          "type": "uint256"
        }
      ],
      "stateMutability": "view",
      "type": "function"
    },
    {
      "inputs": [],
      "name": "EVVM_DOMAIN",
      "outputs": [
        {
          "internalType": "bytes32",
          "name": "",
          "type": "bytes32"
        }
      ],
      "stateMutability": "view",
      "type": "function"
    },
    {
      "inputs": [],
      "name": "SIGNATURE_VERSION",
      "outputs": [
        {
          "internalType": "uint8",
          "name": "",
          "type": "uint8"
        }
      ],
      "stateMutability": "view",
      "type": "function"
    },
    {
      "inputs": [
        {
          "internalType": "bytes32",
          "name": "fromVaddr",
          "type": "bytes32"
        },
        {
          "internalType": "bytes32",
          "name": "toVaddr",
          "type": "bytes32"
        },
        {
          "internalType": "externalEuint64",
          "name": "amount",
          "type": "bytes32"
        },
        {
          "internalType": "bytes",
          "name": "inputProof",
          "type": "bytes"
        },
        {
          "internalType": "uint64",
          "name": "expectedNonce",
          "type": "uint64"
        },
        {
          "internalType": "bool",
          "name": "incrementBlock",
          "type": "bool"
        }
      ],
      "name": "_applyTransferInternal",
      "outputs": [
        {
          "internalType": "uint256",
          "name": "txId",
          "type": "uint256"
        }
      ],
      "stateMutability": "nonpayable",
      "type": "function"
    },
    {
      "inputs": [
        {
          "internalType": "bytes32",
          "name": "vaddr",
          "type": "bytes32"
        }
      ],
      "name": "accountExists",
      "outputs": [
        {
          "internalType": "bool",
          "name": "",
          "type": "bool"
        }
      ],
      "stateMutability": "view",
      "type": "function"
    },
    {
      "inputs": [
        {
          "internalType": "address",
          "name": "",
          "type": "address"
        }
      ],
      "name": "addressToVaddr",
      "outputs": [
        {
          "internalType": "bytes32",
          "name": "",
          "type": "bytes32"
        }
      ],
      "stateMutability": "view",
      "type": "function"
    },
    {
      "inputs": [
        {
          "internalType": "bytes32",
          "name": "fromVaddr",
          "type": "bytes32"
        },
        {
          "internalType": "bytes32",
          "name": "toVaddr",
          "type": "bytes32"
        },
        {
          "internalType": "externalEuint64",
          "name": "amount",
          "type": "bytes32"
        },
        {
          "internalType": "bytes",
          "name": "inputProof",
          "type": "bytes"
        },
        {
          "internalType": "uint64",
          "name": "expectedNonce",
          "type": "uint64"
        },
        {
          "internalType": "uint256",
          "name": "deadline",
          "type": "uint256"
        },
        {
          "components": [
            {
              "internalType": "uint8",
              "name": "v",
              "type": "uint8"
            },
            {
              "internalType": "bytes32",
              "name": "r",
              "type": "bytes32"
            },
            {
              "internalType": "bytes32",
              "name": "s",
              "type": "bytes32"
            }
          ],
          "internalType": "struct EVVMCore.Signature",
          "name": "sig",
          "type": "tuple"
        }
      ],
      "name": "applySignedTransfer",
      "outputs": [
        {
          "internalType": "uint256",
          "name": "txId",
          "type": "uint256"
        }
      ],
      "stateMutability": "nonpayable",
      "type": "function"
    },
    {
      "inputs": [
        {
          "internalType": "bytes32",
          "name": "fromVaddr",
          "type": "bytes32"
        },
        {
          "internalType": "bytes32",
          "name": "toVaddr",
          "type": "bytes32"
        },
        {
          "internalType": "externalEuint64",
          "name": "amount",
          "type": "bytes32"
        },
        {
          "internalType": "bytes",
          "name": "inputProof",
          "type": "bytes"
        },
        {
          "internalType": "uint64",
          "name": "expectedNonce",
          "type": "uint64"
        }
      ],
      "name": "applyTransfer",
      "outputs": [
        {
          "internalType": "uint256",
          "name": "txId",
          "type": "uint256"
        }
      ],
      "stateMutability": "nonpayable",
      "type": "function"
    },
    {
      "inputs": [
        {
          "components": [
            {
              "internalType": "bytes32",
              "name": "fromVaddr",
              "type": "bytes32"
            },
            {
              "internalType": "bytes32",
              "name": "toVaddr",
              "type": "bytes32"
            },
            {
              "internalType": "externalEuint64",
              "name": "amount",
              "type": "bytes32"
            },
            {
              "internalType": "bytes",
              "name": "inputProof",
              "type": "bytes"
            },
            {
              "internalType": "uint64",
              "name": "expectedNonce",
              "type": "uint64"
            }
          ],
          "internalType": "struct EVVMCore.TransferParams[]",
          "name": "transfers",
          "type": "tuple[]"
        }
      ],
      "name": "applyTransferBatch",
      "outputs": [
        {
          "internalType": "uint256",
          "name": "successfulTxs",
          "type": "uint256"
        },
        {
          "internalType": "uint256",
          "name": "failedTxs",
          "type": "uint256"
        },
        {
          "internalType": "uint256[]",
          "name": "txIds",
          "type": "uint256[]"
        }
      ],
      "stateMutability": "nonpayable",
      "type": "function"
    },
    {
      "inputs": [
        {
          "internalType": "bytes32",
          "name": "challengeId",
          "type": "bytes32"
        }
      ],
      "name": "cancelSecureTransfer",
      "outputs": [],
      "stateMutability": "nonpayable",
      "type": "function"
    },
    {
      "inputs": [
        {
          "internalType": "bytes32",
          "name": "challengeId",
          "type": "bytes32"
        },
        {
          "internalType": "externalEuint64",
          "name": "secret",
          "type": "bytes32"
        },
        {
          "internalType": "bytes",
          "name": "secretProof",
          "type": "bytes"
        }
      ],
      "name": "completeSecureTransfer",
      "outputs": [
        {
          "internalType": "uint256",
          "name": "txId",
          "type": "uint256"
        }
      ],
      "stateMutability": "nonpayable",
      "type": "function"
    },
    {
      "inputs": [],
      "name": "confidentialProtocolId",
      "outputs": [
        {
          "internalType": "uint256",
          "name": "",
          "type": "uint256"
        }
      ],
      "stateMutability": "view",
      "type": "function"
    },
    {
      "inputs": [
        {
          "internalType": "bytes32",
          "name": "newCommitment",
          "type": "bytes32"
        }
      ],
      "name": "createVirtualBlock",
      "outputs": [
        {
          "internalType": "uint64",
          "name": "blockNumber",
          "type": "uint64"
        }
      ],
      "stateMutability": "nonpayable",
      "type": "function"
    },
    {
      "inputs": [
        {
          "internalType": "bytes32",
          "name": "vaddr",
          "type": "bytes32"
        }
      ],
      "name": "disableAccountSecret",
      "outputs": [],
      "stateMutability": "nonpayable",
      "type": "function"
    },
    {
      "inputs": [
        {
          "internalType": "bytes32",
          "name": "vaddr",
          "type": "bytes32"
        }
      ],
      "name": "enableAccountSecret",
      "outputs": [],
      "stateMutability": "nonpayable",
      "type": "function"
    },
    {
      "inputs": [],
      "name": "evvmID",
      "outputs": [
        {
          "internalType": "uint256",
          "name": "",
          "type": "uint256"
        }
      ],
      "stateMutability": "view",
      "type": "function"
    },
    {
      "inputs": [
        {
          "internalType": "bytes32",
          "name": "vaddr",
          "type": "bytes32"
        },
        {
          "internalType": "externalEuint64",
          "name": "amount",
          "type": "bytes32"
        },
        {
          "internalType": "bytes",
          "name": "inputProof",
          "type": "bytes"
        }
      ],
      "name": "faucetAddBalance",
      "outputs": [],
      "stateMutability": "nonpayable",
      "type": "function"
    },
    {
      "inputs": [
        {
          "internalType": "bytes32",
          "name": "",
          "type": "bytes32"
        }
      ],
      "name": "fheSecretEnabled",
      "outputs": [
        {
          "internalType": "bool",
          "name": "",
          "type": "bool"
        }
      ],
      "stateMutability": "view",
      "type": "function"
    },
    {
      "inputs": [
        {
          "internalType": "address",
          "name": "realAddress",
          "type": "address"
        },
        {
          "internalType": "bytes32",
          "name": "salt",
          "type": "bytes32"
        }
      ],
      "name": "generateVaddrFromAddress",
      "outputs": [
        {
          "internalType": "bytes32",
          "name": "",
          "type": "bytes32"
        }
      ],
      "stateMutability": "view",
      "type": "function"
    },
    {
      "inputs": [
        {
          "internalType": "bytes32",
          "name": "vaddr",
          "type": "bytes32"
        }
      ],
      "name": "getAccount",
      "outputs": [
        {
          "components": [
            {
              "internalType": "euint64",
              "name": "balance",
              "type": "bytes32"
            },
            {
              "internalType": "uint64",
              "name": "nonce",
              "type": "uint64"
            },
            {
              "internalType": "bool",
              "name": "exists",
              "type": "bool"
            }
          ],
          "internalType": "struct EVVMCore.VirtualAccount",
          "name": "",
          "type": "tuple"
        }
      ],
      "stateMutability": "view",
      "type": "function"
    },
    {
      "inputs": [
        {
          "internalType": "uint64",
          "name": "blockNumber",
          "type": "uint64"
        }
      ],
      "name": "getBlockInfo",
      "outputs": [
        {
          "components": [
            {
              "internalType": "uint64",
              "name": "blockNumber",
              "type": "uint64"
            },
            {
              "internalType": "bytes32",
              "name": "stateCommitment",
              "type": "bytes32"
            },
            {
              "internalType": "uint256",
              "name": "timestamp",
              "type": "uint256"
            },
            {
              "internalType": "uint256",
              "name": "transactionCount",
              "type": "uint256"
            },
            {
              "internalType": "bool",
              "name": "exists",
              "type": "bool"
            }
          ],
          "internalType": "struct EVVMCore.VirtualBlock",
          "name": "blockInfo",
          "type": "tuple"
        }
      ],
      "stateMutability": "view",
      "type": "function"
    },
    {
      "inputs": [
        {
          "internalType": "bytes32",
          "name": "vaddr",
          "type": "bytes32"
        }
      ],
      "name": "getEncryptedBalance",
      "outputs": [
        {
          "internalType": "euint64",
          "name": "",
          "type": "bytes32"
        }
      ],
      "stateMutability": "view",
      "type": "function"
    },
    {
      "inputs": [
        {
          "internalType": "bytes32",
          "name": "vaddr",
          "type": "bytes32"
        }
      ],
      "name": "getNonce",
      "outputs": [
        {
          "internalType": "uint64",
          "name": "",
          "type": "uint64"
        }
      ],
      "stateMutability": "view",
      "type": "function"
    },
    {
      "inputs": [
        {
          "internalType": "bytes32",
          "name": "challengeId",
          "type": "bytes32"
        }
      ],
      "name": "getSecureTransferChallenge",
      "outputs": [
        {
          "components": [
            {
              "internalType": "bytes32",
              "name": "fromVaddr",
              "type": "bytes32"
            },
            {
              "internalType": "bytes32",
              "name": "toVaddr",
              "type": "bytes32"
            },
            {
              "internalType": "externalEuint64",
              "name": "amount",
              "type": "bytes32"
            },
            {
              "internalType": "bytes",
              "name": "inputProof",
              "type": "bytes"
            },
            {
              "internalType": "uint64",
              "name": "expectedNonce",
              "type": "uint64"
            },
            {
              "internalType": "uint256",
              "name": "deadline",
              "type": "uint256"
            },
            {
              "internalType": "uint256",
              "name": "challengeExpiry",
              "type": "uint256"
            },
            {
              "internalType": "bytes32",
              "name": "challengeHash",
              "type": "bytes32"
            },
            {
              "internalType": "bool",
              "name": "exists",
              "type": "bool"
            }
          ],
          "internalType": "struct EVVMCore.SecureTransferChallenge",
          "name": "",
          "type": "tuple"
        }
      ],
      "stateMutability": "view",
      "type": "function"
    },
    {
      "inputs": [
        {
          "internalType": "bytes32",
          "name": "fromVaddr",
          "type": "bytes32"
        },
        {
          "internalType": "bytes32",
          "name": "toVaddr",
          "type": "bytes32"
        },
        {
          "internalType": "bytes32",
          "name": "amountCommitment",
          "type": "bytes32"
        },
        {
          "internalType": "uint64",
          "name": "nonce",
          "type": "uint64"
        },
        {
          "internalType": "uint256",
          "name": "deadline",
          "type": "uint256"
        }
      ],
      "name": "getTransferMessageHash",
      "outputs": [
        {
          "internalType": "bytes32",
          "name": "",
          "type": "bytes32"
        }
      ],
      "stateMutability": "view",
      "type": "function"
    },
    {
      "inputs": [
        {
          "internalType": "address",
          "name": "realAddress",
          "type": "address"
        }
      ],
      "name": "getVaddrFromAddress",
      "outputs": [
        {
          "internalType": "bytes32",
          "name": "",
          "type": "bytes32"
        }
      ],
      "stateMutability": "view",
      "type": "function"
    },
    {
      "inputs": [
        {
          "internalType": "uint256",
          "name": "txId",
          "type": "uint256"
        }
      ],
      "name": "getVirtualTransaction",
      "outputs": [
        {
          "components": [
            {
              "internalType": "bytes32",
              "name": "fromVaddr",
              "type": "bytes32"
            },
            {
              "internalType": "bytes32",
              "name": "toVaddr",
              "type": "bytes32"
            },
            {
              "internalType": "euint64",
              "name": "amountEnc",
              "type": "bytes32"
            },
            {
              "internalType": "uint64",
              "name": "nonce",
              "type": "uint64"
            },
            {
              "internalType": "uint64",
              "name": "vBlockNumber",
              "type": "uint64"
            },
            {
              "internalType": "uint256",
              "name": "timestamp",
              "type": "uint256"
            },
            {
              "internalType": "bool",
              "name": "exists",
              "type": "bool"
            }
          ],
          "internalType": "struct EVVMCore.VirtualTransaction",
          "name": "",
          "type": "tuple"
        }
      ],
      "stateMutability": "view",
      "type": "function"
    },
    {
      "inputs": [
        {
          "internalType": "bytes32",
          "name": "vaddr",
          "type": "bytes32"
        }
      ],
      "name": "hasSecretEnabled",
      "outputs": [
        {
          "internalType": "bool",
          "name": "",
          "type": "bool"
        }
      ],
      "stateMutability": "view",
      "type": "function"
    },
    {
      "inputs": [],
      "name": "nextTxId",
      "outputs": [
        {
          "internalType": "uint256",
          "name": "",
          "type": "uint256"
        }
      ],
      "stateMutability": "view",
      "type": "function"
    },
    {
      "inputs": [],
      "name": "owner",
      "outputs": [
        {
          "internalType": "address",
          "name": "",
          "type": "address"
        }
      ],
      "stateMutability": "view",
      "type": "function"
    },
    {
      "inputs": [
        {
          "internalType": "bytes32",
          "name": "",
          "type": "bytes32"
        }
      ],
      "name": "pendingSecureTransfers",
      "outputs": [
        {
          "internalType": "bytes32",
          "name": "fromVaddr",
          "type": "bytes32"
        },
        {
          "internalType": "bytes32",
          "name": "toVaddr",
          "type": "bytes32"
        },
        {
          "internalType": "externalEuint64",
          "name": "amount",
          "type": "bytes32"
        },
        {
          "internalType": "bytes",
          "name": "inputProof",
          "type": "bytes"
        },
        {
          "internalType": "uint64",
          "name": "expectedNonce",
          "type": "uint64"
        },
        {
          "internalType": "uint256",
          "name": "deadline",
          "type": "uint256"
        },
        {
          "internalType": "uint256",
          "name": "challengeExpiry",
          "type": "uint256"
        },
        {
          "internalType": "bytes32",
          "name": "challengeHash",
          "type": "bytes32"
        },
        {
          "internalType": "bool",
          "name": "exists",
          "type": "bool"
        }
      ],
      "stateMutability": "view",
      "type": "function"
    },
    {
      "inputs": [
        {
          "internalType": "bytes32",
          "name": "vaddr",
          "type": "bytes32"
        },
        {
          "internalType": "externalEuint64",
          "name": "initialBalance",
          "type": "bytes32"
        },
        {
          "internalType": "bytes",
          "name": "inputProof",
          "type": "bytes"
        }
      ],
      "name": "registerAccount",
      "outputs": [],
      "stateMutability": "nonpayable",
      "type": "function"
    },
    {
      "inputs": [
        {
          "internalType": "address",
          "name": "realAddress",
          "type": "address"
        },
        {
          "internalType": "externalEuint64",
          "name": "initialBalance",
          "type": "bytes32"
        },
        {
          "internalType": "bytes",
          "name": "inputProof",
          "type": "bytes"
        }
      ],
      "name": "registerAccountFromAddress",
      "outputs": [],
      "stateMutability": "nonpayable",
      "type": "function"
    },
    {
      "inputs": [],
      "name": "renounceOwnership",
      "outputs": [],
      "stateMutability": "nonpayable",
      "type": "function"
    },
    {
      "inputs": [
        {
          "internalType": "address",
          "name": "from",
          "type": "address"
        },
        {
          "internalType": "address",
          "name": "to",
          "type": "address"
        },
        {
          "internalType": "externalEuint64",
          "name": "amount",
          "type": "bytes32"
        },
        {
          "internalType": "bytes",
          "name": "inputProof",
          "type": "bytes"
        },
        {
          "internalType": "uint64",
          "name": "expectedNonce",
          "type": "uint64"
        }
      ],
      "name": "requestPay",
      "outputs": [
        {
          "internalType": "uint256",
          "name": "txId",
          "type": "uint256"
        }
      ],
      "stateMutability": "nonpayable",
      "type": "function"
    },
    {
      "inputs": [
        {
          "internalType": "address",
          "name": "from",
          "type": "address"
        },
        {
          "internalType": "address",
          "name": "to",
          "type": "address"
        },
        {
          "internalType": "externalEuint64",
          "name": "amount",
          "type": "bytes32"
        },
        {
          "internalType": "bytes",
          "name": "inputProof",
          "type": "bytes"
        },
        {
          "internalType": "uint64",
          "name": "expectedNonce",
          "type": "uint64"
        },
        {
          "internalType": "uint256",
          "name": "deadline",
          "type": "uint256"
        },
        {
          "components": [
            {
              "internalType": "uint8",
              "name": "v",
              "type": "uint8"
            },
            {
              "internalType": "bytes32",
              "name": "r",
              "type": "bytes32"
            },
            {
              "internalType": "bytes32",
              "name": "s",
              "type": "bytes32"
            }
          ],
          "internalType": "struct EVVMCore.Signature",
          "name": "sig",
          "type": "tuple"
        }
      ],
      "name": "requestPaySigned",
      "outputs": [
        {
          "internalType": "uint256",
          "name": "txId",
          "type": "uint256"
        }
      ],
      "stateMutability": "nonpayable",
      "type": "function"
    },
    {
      "inputs": [
        {
          "internalType": "bytes32",
          "name": "fromVaddr",
          "type": "bytes32"
        },
        {
          "internalType": "bytes32",
          "name": "toVaddr",
          "type": "bytes32"
        },
        {
          "internalType": "externalEuint64",
          "name": "amount",
          "type": "bytes32"
        },
        {
          "internalType": "bytes",
          "name": "inputProof",
          "type": "bytes"
        },
        {
          "internalType": "uint64",
          "name": "expectedNonce",
          "type": "uint64"
        },
        {
          "internalType": "uint256",
          "name": "deadline",
          "type": "uint256"
        },
        {
          "components": [
            {
              "internalType": "uint8",
              "name": "v",
              "type": "uint8"
            },
            {
              "internalType": "bytes32",
              "name": "r",
              "type": "bytes32"
            },
            {
              "internalType": "bytes32",
              "name": "s",
              "type": "bytes32"
            }
          ],
          "internalType": "struct EVVMCore.Signature",
          "name": "sig",
          "type": "tuple"
        }
      ],
      "name": "requestSecureTransfer",
      "outputs": [
        {
          "internalType": "bytes32",
          "name": "challengeId",
          "type": "bytes32"
        }
      ],
      "stateMutability": "nonpayable",
      "type": "function"
    },
    {
      "inputs": [
        {
          "internalType": "bytes32",
          "name": "vaddr",
          "type": "bytes32"
        },
        {
          "internalType": "externalEuint64",
          "name": "secret",
          "type": "bytes32"
        },
        {
          "internalType": "bytes",
          "name": "inputProof",
          "type": "bytes"
        }
      ],
      "name": "setAccountSecret",
      "outputs": [],
      "stateMutability": "nonpayable",
      "type": "function"
    },
    {
      "inputs": [
        {
          "internalType": "uint256",
          "name": "newEvvmID",
          "type": "uint256"
        }
      ],
      "name": "setEvvmID",
      "outputs": [],
      "stateMutability": "nonpayable",
      "type": "function"
    },
    {
      "inputs": [],
      "name": "stateCommitment",
      "outputs": [
        {
          "internalType": "bytes32",
          "name": "",
          "type": "bytes32"
        }
      ],
      "stateMutability": "view",
      "type": "function"
    },
    {
      "inputs": [
        {
          "internalType": "address",
          "name": "newOwner",
          "type": "address"
        }
      ],
      "name": "transferOwnership",
      "outputs": [],
      "stateMutability": "nonpayable",
      "type": "function"
    },
    {
      "inputs": [
        {
          "internalType": "bytes32",
          "name": "newCommitment",
          "type": "bytes32"
        }
      ],
      "name": "updateStateCommitment",
      "outputs": [],
      "stateMutability": "nonpayable",
      "type": "function"
    },
    {
      "inputs": [
        {
          "internalType": "bytes32",
          "name": "newCommitment",
          "type": "bytes32"
        }
      ],
      "name": "updateStateCommitmentAfterBatch",
      "outputs": [],
      "stateMutability": "nonpayable",
      "type": "function"
    },
    {
      "inputs": [],
      "name": "vBlockNumber",
      "outputs": [
        {
          "internalType": "uint64",
          "name": "",
          "type": "uint64"
        }
      ],
      "stateMutability": "view",
      "type": "function"
    },
    {
      "inputs": [],
      "name": "vChainId",
      "outputs": [
        {
          "internalType": "uint64",
          "name": "",
          "type": "uint64"
        }
      ],
      "stateMutability": "view",
      "type": "function"
    },
    {
      "inputs": [
        {
          "internalType": "bytes32",
          "name": "",
          "type": "bytes32"
        }
      ],
      "name": "vaddrToAddress",
      "outputs": [
        {
          "internalType": "address",
          "name": "",
          "type": "address"
        }
      ],
      "stateMutability": "view",
      "type": "function"
    },
    {
      "inputs": [
        {
          "internalType": "uint64",
          "name": "",
          "type": "uint64"
        }
      ],
      "name": "virtualBlocks",
      "outputs": [
        {
          "internalType": "uint64",
          "name": "blockNumber",
          "type": "uint64"
        },
        {
          "internalType": "bytes32",
          "name": "stateCommitment",
          "type": "bytes32"
        },
        {
          "internalType": "uint256",
          "name": "timestamp",
          "type": "uint256"
        },
        {
          "internalType": "uint256",
          "name": "transactionCount",
          "type": "uint256"
        },
        {
          "internalType": "bool",
          "name": "exists",
          "type": "bool"
        }
      ],
      "stateMutability": "view",
      "type": "function"
    },
    {
      "inputs": [
        {
          "internalType": "uint256",
          "name": "",
          "type": "uint256"
        }
      ],
      "name": "virtualTransactions",
      "outputs": [
        {
          "internalType": "bytes32",
          "name": "fromVaddr",
          "type": "bytes32"
        },
        {
          "internalType": "bytes32",
          "name": "toVaddr",
          "type": "bytes32"
        },
        {
          "internalType": "euint64",
          "name": "amountEnc",
          "type": "bytes32"
        },
        {
          "internalType": "uint64",
          "name": "nonce",
          "type": "uint64"
        },
        {
          "internalType": "uint64",
          "name": "vBlockNumber",
          "type": "uint64"
        },
        {
          "internalType": "uint256",
          "name": "timestamp",
          "type": "uint256"
        },
        {
          "internalType": "bool",
          "name": "exists",
          "type": "bool"
        }
      ],
      "stateMutability": "view",
      "type": "function"
    }
  ],
  "transactionHash": "0xda5e42f9958ca4e9a3cda5f33fdb315e599661a2da4eb0efa15c8e8c21332b41",
  "args": [
    "1",
    "100"
  ],
  "numDeployments": 11,
  "solcInputHash": "fcd98f79b7a4860f32a8c2f405a378c8",
  "bytecode": "0x60a0346102025761581d906001600160401b0390601f38849003908101601f19168201908382118383101761020657808391604096879485528339810103126102025780519182168203610202576020015133156101eb575f549160018060a01b03338185167f8be0079c531659141344cd1fd0a4f28419497f9722a3daafe3b4186f6b6457e05f80a3610091610239565b50466001036101b1576100a2610239565b506100ab61021a565b5f81525f60208201525f86820152905b81517f9e7b61f58c47dc699ac88507c4f5bb9f121c03808c5676a8078fe583e464970080546001600160a01b031990811692841692909217905560208301517f9e7b61f58c47dc699ac88507c4f5bb9f121c03808c5676a8078fe583e464970180548316918416919091179055918601517f9e7b61f58c47dc699ac88507c4f5bb9f121c03808c5676a8078fe583e46497028054909316911617905560805260019081556001600160e01b031990911633600160a01b600160e01b031916175f556005555161556a90816102b3823960805181818161215101528181613615015281816146d60152818161474d01526147f60152f35b4662aa36a7036101c9576101c3610253565b906100bb565b46617a69036101da576101c3610253565b84516373cac13b60e01b8152600490fd5b8251631e4fbdf760e01b81525f6004820152602490fd5b5f80fd5b634e487b7160e01b5f52604160045260245ffd5b60405190606082016001600160401b0381118382101761020657604052565b61024161021a565b905f82525f60208301525f6040830152565b61025b610239565b5061026461021a565b73f0ffdc93b7e186bc2f8cb3daa75d86d1930a433d81527392c920834ec8941d2c77d188936e1f7a6f49c127602082015273be0e383937d564d7ff0bc3b46c51f0bf8d5c311a60408201529056fe60806040526004361015610011575f80fd5b5f803560e01c806301ed3f51146140e25780630a6259281461406f5780630eecc3c314613f6357806313af9e1f14613af15780631a4380f014613ab957806325ad27051461396d5780632beed57b1461385c5780632df41c2d1461373c5780633aaccbd4146136c25780633b816bec1461368d5780634136a33c146136395780635035268a146135f65780636019d475146134b157806365537e8d146134945780636c6c971414613462578063715018a61461340b5780637707d205146133605780637b036037146133395780637bc99eb5146132fd5780637dee2dde146132d55780637e7f86571461329b57806384029a1e146131da57806384ca67c4146131ab57806386918330146131ab5780638927b030146131895780638aff87b21461316c5780638da5cb5b146131455780638ec4f79e14612a0157806390465f62146129b957806391b5b3d81461250b578063a4157296146124f0578063a7d3c20d14612442578063a8e4d7d4146123c0578063a929cb97146120f3578063b4971d1e14612085578063b4d1872f14611f35578063b8e988411461196f578063bbdb9b491461110e578063ca0d54d314610fa5578063ca89077914610d56578063d1de501114610cb3578063d51eb19b14610b51578063d800741e14610b33578063db37fe6014610466578063e12fc1d714610449578063e6538b28146102ed578063f2fde38b146102655763f83491b41461022a575f80fd5b34610262576020366003190112610262576020906040906001600160a01b03610251614136565b168152600783522054604051908152f35b80fd5b50346102625760203660031901126102625761027f614136565b610287614b35565b6001600160a01b039081169081156102d4575f54826001600160601b0360a01b8216175f55167f8be0079c531659141344cd1fd0a4f28419497f9722a3daafe3b4186f6b6457e05f80a380f35b604051631e4fbdf760e01b815260048101849052602490fd5b503461026257602090816003193601126102625760408051916004356103128461423c565b818452818585015281838501526060808501528160808501528160a08501528160c08501528160e085015281610100809501528082526009855261035e60ff6008858520015416614a66565b81526009845220604051916103728361423c565b8154835260018201548484019081526002830154916040850192835261039a600385016142ca565b93606086019485526001600160401b039384600483015416956080880196875260058301549060a0890191825260068401549260c08a0193845260ff600860078701549660e08d0197885201541696868b0197151588526040519b8c9b818d5251908c01525160408b01525160608a01525195610425610120978860808c01526101408b019061436c565b97511660a08901525160c08801525160e08701525190850152511515908301520390f35b5034610262578060031936011261026257602060405161012c8152f35b50346102625760a0366003190112610262576064356001600160401b038111610b2f5761049790369060040161418e565b61049f614178565b6105296105215f946004355f5260036020526104c760ff600160405f20015460401c1661492e565b6024355f5260036020526104e760ff600160405f20015460401c1661497a565b6004355f52600360205260405f20946024355f5261051a60405f20956001600160401b038060018a0154169116146149c6565b3691614666565b604435614b60565b9060405161053681614273565b600181526020810160203682378361054d83614521565b525f805160206154f5833981519152546001600160a01b031690813b15610b2b57604051637d6e912360e11b815260206004820152925160248401819052839160448301915f5b818110610b125750505091815f81819503925af18015610b0757610af4575b506105bf8284546151a4565b6105ca838354615257565b8092828655556105da30826152db565b6105e430836152db565b604051906105f182614273565b600182526020368184013761060582614521565b525f805160206154f5833981519152546001600160a01b0316803b156109aa5790859160405191637d6e912360e11b835260248301602060048501528151809152602060448501920190855b818110610adb575050508391838381809403925af18015610a9f57610ac7575b50506040519061068082614273565b600182526020368184013761069482614521565b525f805160206154f5833981519152546001600160a01b0316803b15610ac35790849160405191637d6e912360e11b835260248301602060048501528151809152602060448501920190855b818110610aaa575050508391838381809403925af18015610a9f57610a87575b505060018201549160016001600160401b0361071d8186166144d3565b166001600160401b03198516179101556001600160401b0383548160a01b610749838360a01c166144d3565b60a01b16908260a01b19161780855560a01c16808452600660205260ff600460408620015416156109fb575b50600554916001830183116109e7576001830160055561083e6001600160401b03855460a01c1660058587610822604051946107b08661420e565b60043586526001600160401b0360208701916024358352604088018b81526060890193838c16855260808a01928352604060a08b019742895260c08c019960018b52815260046020522099518a555160018a015551600289015581600389019351168219845416178355511690614550565b51600484015551151591019060ff801983541691151516179055565b6001600160401b03845460a01c16808552600660205260ff6004604087200154166109ae575b5061086f30836152db565b60405161087b81614273565b60018152602036818301378261089082614521565b525f805160206154f5833981519152546001600160a01b0316803b156109aa57908590604051928391637d6e912360e11b835260248301602060048501528151809152602060448501920190855b81811061098e575050508383809203925af180156109835761096b575b505f80516020615515833981519152836001600160401b036020965460a01c16610960604051928392602435976001600160401b03600435981690859094939291606092608083019683526001600160401b0380921660208401521660408201520152565b0390a3604051908152f35b6109758591614229565b61097f57846108fb565b8380fd5b6040513d87823e3d90fd5b825184528b9650879550602093840193909201916001016108de565b8580fd5b845260066020526003604085200180546001810181116109d357600101905584610864565b634e487b7160e01b86526011600452602486fd5b634e487b7160e01b84526011600452602484fd5b610a819060046002549160405192610a12846141f3565b818452602084019081526040840142815260608501918983526080860193600185528a5260066020526001600160401b0360408b209651166001600160401b031987541617865551600186015551600285015551600384015551151591019060ff801983541691151516179055565b83610775565b610a9090614229565b610a9b578284610700565b8280fd5b6040513d84823e3d90fd5b82518452899650602093840193909201916001016106e0565b8480fd5b610ad090614229565b61097f578385610671565b825184528a965060209384019390920191600101610651565b610aff919450614229565b5f92846105b3565b6040513d5f823e3d90fd5b8251845286945060209384019390920191600101610594565b5f80fd5b5080fd5b50346102625780600319360112610262576020600254604051908152f35b503461026257610b95610b63366143ee565b9183869592949552610b8f6020946003865260019461051a60ff600160408c20015460401c1615614a1a565b90614b60565b8385526003835260408520818155600101805468ffffffffffffffffff1916600160401b17905590610bc730836152db565b60405191610bd483614273565b600183528383019084368337610be984614521565b525f805160206154f5833981519152546001600160a01b031691823b15610caf57604051637d6e912360e11b8152600481018690529351602485018190528794939260448501929091865b88828210610c995750505050508391838381809403925af18015610a9f57610c85575b50507f9ccaf5e7debf7907a65fec1893f019b872019650c10419300c5d8f943641ad0490604051848152a280f35b610c8e90614229565b610a9b57825f610c57565b845186528b985094850194909301928201610c34565b8680fd5b503461026257602080600319360112610b2f57604060609260043581838051610cdb81614258565b8281528287820152015280825260038452610d0060ff60018585200154851c16614578565b815260038352209060405190610d1582614258565b60018354938484520154916001600160401b039060ff6040848301928487168452019460401c16151584526040519485525116908301525115156040820152f35b50346102625761012036600319011261026257610d71614136565b610d7961414c565b91604435926064356001600160401b038111610a9b57610d9d90369060040161418e565b919092610da8614178565b9460a4359160603660c31901126102625760018060a01b038092169586825260209860078a5283604084205496168352604083205496610de98715156145c4565b610df488151561461a565b610e0086421115614858565b610e25868b8d604051818101918783528152610e1b81614273565b5190208b8b61478c565b9260405191610e3383614258565b60c43560ff81168103610b2b578b888f86610e7199610e6a9261051a96610b8f9a5260e4359083015261010435604083015261512c565b16146148e2565b9160405190610e7f82614273565b600190600183528a8301908b36833785610e9885614521565b525f805160206154f5833981519152541691823b15610ac35792909184928c604051958694637d6e912360e11b865260248601908360048801525180915260448601939287905b828210610f835750505050508383809203925af18015610a9f579088939291610f69575b50507f06d01c39976cdcbb160c46f1483ace4eba4c2c7dcae6b591e22d2ac082abc61f9291610f33918686614c57565b95610f5e87604051938493846040919493926001600160401b03606083019616825260208201520152565b0390a4604051908152f35b81929350610f7690614229565b6102625790818792610f03565b9194839698508483929598505181520195019101928694928f94899795610edf565b503461026257610fe9610fb7366143ee565b92939091610fc3614b35565b848652610b8f6020936003855260019561051a60ff600160408c20015460401c16614578565b91610ff430846152db565b610ffe33846152db565b838552600382526040852090611015848354615257565b80925561102230836152db565b6040519161102f83614273565b60018352838301908436833761104484614521565b525f805160206154f5833981519152546001600160a01b031691823b1561110a57604051637d6e912360e11b8152600481018690529351602485018190528894939260448501929091865b888282106110f45750505050508391838381809403925af18015610a9f576110e0575b50507f7a308cef7aa298fb75e66d9a949d93e2623bac62ebd3ff18dd651aa0cb58b9a691604051908152a280f35b6110e990614229565b61097f57835f6110b2565b845186528c98509485019490930192820161108f565b8780fd5b50346102625761111d366143ee565b9291908285526009602052604085209161113d60ff600885015416614a66565b6006830154421161192a578254865260036020526001600160401b036001604088200154166001600160401b03600485015416036118ef57610b8f611198926111906002860154610b8f600388016142ca565b963691614666565b9281548552600a602052604085205484156118df575b80156118cd575b5f805160206154d58339815191525460405163f77f3f1d60e01b8152600481019690965260248601919091526001600160f81b0319861660448601526020908590606490829089906001600160a01b03165af1938415610983578594611899575b5061121f615342565b93818115611815575b15611805575b84156117ec575b9060646020928760018060a01b035f805160206154d583398151915254166040519889958694637702dcff60e01b86526004860152602485015260448401525af19283156117e15784936117ad575b50805484526003602052604084209060018101548552604085206112a98584546151a4565b83556112b6858254615257565b81556112c4835430906152db565b6112cf3082546152db565b8254604051906112de82614273565b60018252602036818401376112f282614521565b525f805160206154f5833981519152546001600160a01b0316803b1561110a5790879160405191637d6e912360e11b835260248301602060048501528151809152602060448501920190855b818110611794575050508391838381809403925af18015610a9f57611780575b5050546040519061136e82614273565b600182526020368184013761138282614521565b525f805160206154f5833981519152546001600160a01b0316803b15610caf5790869160405191637d6e912360e11b835260248301602060048501528151809152602060448501920190855b818110611767575050508391838381809403925af18015610a9f57611753575b50506113fa30856152db565b60405161140681614273565b60018152602036818301378461141b82614521565b525f805160206154f5833981519152546001600160a01b0316803b15610caf5790869160405191637d6e912360e11b835260248301602060048501528151809152602060448501920190855b81811061173a575050508391838381809403925af18015610a9f57611726575b505060018201549160016001600160401b036114a48186166144d3565b166001600160401b03198516179101556001600160401b0385548160a01b6114d0838360a01c166144d3565b60a01b16908260a01b19161780875560a01c16855260066020526040852060ff600482015416155f1461170f57506115926001600160401b03865460a01c1660046002549160405192611522846141f3565b81845260208401908152604084014281526060850191600183526080860193600185528c5260066020526001600160401b0360408d209651166001600160401b031987541617865551600186015551600285015551600384015551151591019060ff801983541691151516179055565b60055493600185018086116116fb576001936020976001600160401b0396945f805160206155158339815191527fee14065611bfc9a2c4da7f597b6ffdd8c170c16e064251ab9299c5178d58cf5e9560409560055582549889930154998461169c8d838e985460a01c16908a51916116098361420e565b88835260208a90840152868c840152858b16606084015260808301524260a0830152600160c083015283528f60049052600560c08b85209280518455602081015160018501558c810151600285015561167b600385018860608401511689198254161781558860808401511690614550565b60a081015160048501550151151591019060ff801983541691151516179055565b89815260098e526116ae888220614ab2565b5487519283526001600160401b03878116602085015260a09190911c91909116166040820152606081018b9052608090a36001600160401b038251911681528688820152a4604051908152f35b634e487b7160e01b87526011600452602487fd5b600301805490600182018092116116fb5755611592565b61172f90614229565b610ac357845f611487565b825184528b965060209384019390920191600101611467565b61175c90614229565b610ac357845f6113ee565b825184528b9650602093840193909201916001016113ce565b61178990614229565b6109aa57855f61135e565b825184528c96506020938401939092019160010161133e565b9092506020813d6020116117d9575b816117c9602093836142a9565b81010312610b2b5751915f611284565b3d91506117bc565b6040513d86823e3d90fd5b935060209060646117fb615342565b9591925050611235565b905061180f615342565b9061122e565b90505f602060018060a01b035f805160206154d58339815191525416604460405180948193639cd07acb60e01b83528c60048401528160248401525af1908115610b07575f91611867575b5090611228565b90506020813d602011611891575b81611882602093836142a9565b81010312610b2b57515f611860565b3d9150611875565b9093506020813d6020116118c5575b816118b5602093836142a9565b81010312610b2b5751925f611216565b3d91506118a8565b5060206118d8615342565b90506111b5565b93506118e9615342565b936111ae565b60405162461bcd60e51b8152602060048201526013602482015272115595934e881b9bdb98d94818da185b99d959606a1b6044820152606490fd5b60405162461bcd60e51b815260206004820152601760248201527f4556564d3a206368616c6c656e676520657870697265640000000000000000006044820152606490fd5b50346102625760c0366003190112610262576064356001600160401b038111610b2f576119a090369060040161418e565b90916119aa614178565b9060a435151560a4350361026257506119e16105215f946004355f5260036020526104c760ff600160405f20015460401c1661492e565b906040516119ee81614273565b6001815260208101602036823783611a0583614521565b525f805160206154f5833981519152546001600160a01b031690813b15610b2b57604051637d6e912360e11b815260206004820152925160248401819052839160448301915f5b818110611f1c5750505091815f81819503925af18015610b0757611f09575b50611a778284546151a4565b611a82838354615257565b809282865555611a9230826152db565b611a9c30836152db565b60405190611aa982614273565b6001825260203681840137611abd82614521565b525f805160206154f5833981519152546001600160a01b0316803b156109aa5790859160405191637d6e912360e11b835260248301602060048501528151809152602060448501920190855b818110611ef0575050508391838381809403925af18015610a9f57611edc575b505060405190611b3882614273565b6001825260203681840137611b4c82614521565b525f805160206154f5833981519152546001600160a01b0316803b15610ac35790849160405191637d6e912360e11b835260248301602060048501528151809152602060448501920190855b818110611ec3575050508391838381809403925af18015610a9f57611eaf575b505060018201549160016001600160401b03611bd58186166144d3565b166001600160401b031985161791015560a435611e44575b600554916001830183116109e7576001830160055560a43515611e3b57611ca46001600160401b03855460a01c165b6005858761082260405194611c308661420e565b60043586526001600160401b0360208701916024358352604088018b81526060890193838c1685528360808b0193168352604060a08b019742895260c08c019960018b52815260046020522099518a555160018a015551600289015581600389019351168219845416178355511690614550565b60a43580611e15575b611de3575b611cbc30836152db565b604051611cc881614273565b600181526020368183013782611cdd82614521565b525f805160206154f5833981519152546001600160a01b0316803b156109aa57908590604051928391637d6e912360e11b835260248301602060048501528151809152602060448501920190855b818110611dc7575050508383809203925af1801561098357611db3575b506020935f8051602061551583398151915290849060a43515611dae575460a01c6001600160401b03165b604080519586526001600160401b03948516602087015293169284019290925260608301919091526024359160043591908060808101610960565b611d73565b611dbd8591614229565b61097f575f611d48565b825184528b965087955060209384019390920191600101611d2b565b6001600160401b03845460a01c16845260066020526003604085200180546001810181116109d3576001019055611cb2565b506001600160401b03845460a01c168452600660205260ff600460408620015416611cad565b611ca484611c1c565b6001600160401b0383548160a01b611e60838360a01c166144d3565b60a01b16908260a01b19161780855560a01c16808452600660205260ff60046040862001541615611e92575b50611bed565b611ea99060046002549160405192610a12846141f3565b5f611e8c565b611eb890614229565b610a9b57825f611bb8565b8251845289965060209384019390920191600101611b98565b611ee590614229565b61097f57835f611b29565b825184528a965060209384019390920191600101611b09565b611f14919450614229565b5f925f611a6b565b8251845286945060209384019390920191600101611a4c565b503461026257602080600319360112610b2f57600435808352600982526040832091611f6760ff600885015416614a66565b60068301544211928315612015575b54927f0ef893bc7b48b09b6e137d47a9a2eb471e6c80427c5b798c9fe8f1d11eac2462919015611fee57604051611fac81614273565b6007815266195e1c1a5c995960ca1b82820152905b83865260098152611fd460408720614ab2565b611fe860405192828493845283019061436c565b0390a380f35b604051611ffa81614273565b600981526818d85b98d95b1b195960ba1b8282015290611fc1565b805485526008825260408520546001600160a01b03163314611f765760405162461bcd60e51b815260048101839052602660248201527f4556564d3a206e6f74206f776e65722c206368616c6c656e6765206e6f7420656044820152651e1c1a5c995960d21b6064820152608490fd5b50346102625760203660031901126102625760a09060406001600160401b0391826120ae614162565b1681526006602052209081541690600181015490600281015460ff60046003840154930154169260405194855260208501526040840152606083015215156080820152f35b5034610b2b576060366003190112610b2b5761210d614136565b6044356001600160401b038111610b2b5761212c90369060040161418e565b60018054604051606086901b6bffffffffffffffffffffffff191660208083019182527f000000000000000000000000000000000000000000000000000000000000000060c01b6001600160c01b0319166034840152603c8301939093529495939491939291906121aa81605c81015b03601f1981018352826142a9565b51902094855f52600384526121cc60ff600160405f20015460401c1615614a1a565b6001600160a01b039283165f81815260078652604090205490959061237d5761222c9161222491875f52600787528860405f2055885f526008875260405f20886001600160601b0360a01b8254161790553691614666565b602435614b60565b855f5260038452600160405f2082815501600160401b68ffffffffffffffffff1982541617905561225d30826152db565b6040519261226a84614273565b60018452848401918536843761227f85614521565b525f805160206154f5833981519152541691823b15610b2b57604051637d6e912360e11b8152600481018690529351602485018190528492604484019290915f5b8882821061236757505050505091815f81819503925af18015610b0757612334575b507f9ccaf5e7debf7907a65fec1893f019b872019650c10419300c5d8f943641ad048391604051868152a27f8b139c06f547e096ce4dae9a1a0d75ab7473db159262df954fe7cb55e11215a28380a380f35b61233f919450614229565b5f927f9ccaf5e7debf7907a65fec1893f019b872019650c10419300c5d8f943641ad046122e2565b84518652889650948501949093019282016122c0565b6064856040519062461bcd60e51b825280600483015260248201527f4556564d3a206164647265737320616c726561647920726567697374657265646044820152fd5b34610b2b576020366003190112610b2b577f85026918a2898147e1e26fa12a4327e81cf8947549e27ba43270dec91a9398f76020600435612402811515614470565b806002556001600160401b035f5460a01c165f52600682528060405f2060ff600482015416612437575b5050604051908152a1005b60010155808461242c565b34610b2b57610b8f6124c361249a612459366143ee565b835f9793949752600360205261247b60ff600160405f20015460401c16614578565b865f52600860205261051a60018060a01b0360405f2054163314614424565b825f52600a6020528060405f2055600b60205260405f20600160ff1982541617905530906152db565b7f45a02a9ab36e67594532217fa24c2b00ccb34b97cd3aad88febe02601a95ab75602060405160018152a2005b34610b2b575f366003190112610b2b57602060405160018152f35b34610b2b5761251936614390565b61252b82979692989598421115614858565b845f52600b60205260ff60405f20541615612974575f858152600860205260409020546001600160a01b0316801561292f5761260d91865f52600360205261257f60ff600160405f20015460401c1661492e565b875f52600360205261259d60ff600160405f20015460401c1661497a565b865f5260036020526125c96001600160401b03600160405f200154166001600160401b038716146149c6565b610e6a6125f38a876040516020810190898252602081526125e981614273565b5190208c8c61478c565b6001600160a01b03926126079036906148a4565b9061512c565b604051958460208801528560408801524260608801524460808801523360601b60a0880152609487528660c08101106001600160401b0360c0890111176128c65760c087016040528651602088012096875f52600960205260ff600860405f200154166128ee575061012c420142116128da5760405160208101908882524260408201526040815261269e81614258565b519020906001600160401b036126d36040519a6126ba8c61423c565b888c5260208c01978a895260408d019687523691614666565b9460608b019586521660808a015260a089015261012c420160c089015260e08801526001610100880152855f52600960205260405f209287518455516001840155516002830155519485516001600160401b0381116128c65760209661273c60038501546141bb565b601f811161288a575b508790601f8311600114612816579282600893610100936127d597965f9261280b575b50508160011b915f199060031b1c19161760038501555b600484016001600160401b036080830151166001600160401b031982541617905560a0810151600585015560c0810151600685015560e081015160078501550151151591019060ff801983541691151516179055565b827fc49f43c2f0c2d752f19ede1b76ac21b92fb076cf9ad7bfeed777d6bdd43d18238560405161012c42018152a4604051908152f35b015190508b80612768565b90600385015f52885f20915f5b601f1985168110612873575083610100936127d5979693600193600897601f1981161061285b575b505050811b01600385015561277f565b01515f1960f88460031b161c191690558b808061284b565b91928a600181928685015181550194019201612823565b6128b690600386015f52895f20601f850160051c8101918b86106128bc575b601f0160051c0190614a04565b88612745565b90915081906128a9565b634e487b7160e01b5f52604160045260245ffd5b634e487b7160e01b5f52601160045260245ffd5b60c060649162461bcd60e51b82820152602060c4820152601660e4820152754556564d3a206368616c6c656e67652065786973747360501b61010482015201fd5b60405162461bcd60e51b815260206004820152601960248201527f4556564d3a206e6f207369676e657220666f72207661646472000000000000006044820152606490fd5b60405162461bcd60e51b815260206004820152601c60248201527f4556564d3a2046484520736563726574206e6f7420656e61626c6564000000006044820152606490fd5b34610b2b576020366003190112610b2b57600435805f5260036020526129eb60ff600160405f20015460401c16614578565b5f526003602052602060405f2054604051908152f35b34610b2b57612a0f36614390565b949593909692612a2188421115614858565b5f848152600860205260409020546001600160a01b03169586156130f45786612a6491610e6a6125f38c888d60405160208101918252602081526125e981614273565b612ade5f97855f526003602052612a8760ff600160405f20015460401c1661492e565b865f526003602052612aa560ff600160405f20015460401c1661497a565b855f526003602052610b8f60405f2094885f5260405f209461051a6001600160401b036001890154166001600160401b038a16146149c6565b90604051612aeb81614273565b6001815260208101602036823783612b0283614521565b525f805160206154f5833981519152546001600160a01b031690813b15610b2b57604051637d6e912360e11b815260206004820152925160248401819052839160448301915f5b8181106130db5750505091815f81819503925af18015610b07576130c8575b50612b748284546151a4565b612b7f838354615257565b809282865555612b8f30826152db565b612b9930836152db565b60405190612ba682614273565b6001825260203681840137612bba82614521565b525f805160206154f5833981519152546001600160a01b0316803b156130c457908990604051928391637d6e912360e11b835260248301602060048501528151809152602060448501920190855b8181106130a8575050508383809203925af1801561309d57908991613089575b505060405190612c3782614273565b6001825260203681840137612c4b82614521565b525f805160206154f5833981519152546001600160a01b0316803b1561308557908890604051928391637d6e912360e11b835260248301602060048501528151809152602060448501920190855b818110613069575050508383809203925af1801561305e5790889161304a575b505060018201549160016001600160401b03612cd68186166144d3565b166001600160401b03198516179101556001600160401b0387548160a01b612d02838360a01c166144d3565b60a01b16908260a01b19161780895560a01c16808852600660205260ff600460408a2001541615612fbd575b5060055496600188018811612fa95760018801600555612dd86001600160401b03825460a01c1660058a60405192612d658461420e565b89845261082260208501918c83526001600160401b0360408701918a83526060880192828d1684526080890191825260a089019542875260c08a0197600189528c52600460205260408c2099518a555160018a015551600289015581600389019351168219845416178355511690614550565b6001600160401b03815460a01c16808252600660205260ff600460408420015416612f70575b50612e0930836152db565b604051612e1581614273565b600181526020368183013782612e2a82614521565b525f805160206154f5833981519152546001600160a01b0316803b15610a9b57908290604051928391637d6e912360e11b835260248301602060048501528151809152602060448501920190855b818110612f54575050508383809203925af18015610a9f57612f40575b50845f805160206155158339815191526001600160401b0360209b95612f138c7f06d01c39976cdcbb160c46f1483ace4eba4c2c7dcae6b591e22d2ac082abc61f9997848d985460a01c16906040519586951690859094939291606092608083019683526001600160401b0380921660208401521660408201520152565b0390a3610f5e87604051938493846040919493926001600160401b03606083019616825260208201520152565b612f4a8291614229565b6102625789612e95565b8251845288965087955060209384019390920191600101612e78565b81526006602052600360408220018054600181018111612f9557600101905589612dfe565b634e487b7160e01b83526011600452602483fd5b634e487b7160e01b81526011600452602490fd5b613044906004600254918a60405193612fd5856141f3565b8285526020850190815260408501904282526001600160401b036040606088019480865260808901966001885281526006602052209651166001600160401b031987541617865551600186015551600285015551600384015551151591019060ff801983541691151516179055565b88612d2e565b61305390614229565b610caf578689612cb9565b6040513d8a823e3d90fd5b825184528e965087955060209384019390920191600101612c99565b8880fd5b61309290614229565b61110a57878a612c28565b6040513d8b823e3d90fd5b825184528f965087955060209384019390920191600101612c08565b8980fd5b6130d3919850614229565b5f9689612b68565b8251845286945060209384019390920191600101612b49565b60405162461bcd60e51b8152602060048201526024808201527f4556564d3a206e6f207369676e6572207265676973746572656420666f72207660448201526330b2323960e11b6064820152608490fd5b34610b2b575f366003190112610b2b575f546040516001600160a01b039091168152602090f35b34610b2b575f366003190112610b2b576020600554604051908152f35b34610b2b575f366003190112610b2b5760206131a36150fd565b604051908152f35b34610b2b576020366003190112610b2b576004355f52600b602052602060ff60405f2054166040519015158152f35b34610b2b57602080600319360112610b2b5760043590815f526008815261320e60018060a01b0360405f2054163314614424565b815f52600a815260405f205415613261577f45a02a9ab36e67594532217fa24c2b00ccb34b97cd3aad88febe02601a95ab7590825f52600b815260405f20600160ff1982541617905560405160018152a2005b6064906040519062461bcd60e51b825260048201526013602482015272115595934e881b9bc81cd958dc995d081cd95d606a1b6044820152fd5b34610b2b575f366003190112610b2b5760206040517f0722f1d0a7b727fc754a57c4b18dcfe2a3f52340e0161b002bd3f9370d9c99388152f35b34610b2b575f366003190112610b2b5760206001600160401b035f5460a01c16604051908152f35b34610b2b5760a0366003190112610b2b576064356001600160401b0381168103610b2b576131a36020916084359060443560243560043561478c565b34610b2b576040366003190112610b2b5760206131a3613357614136565b602435906146ab565b34610b2b576020366003190112610b2b576004355f52600960205260405f2080549060018101549060028101549261339a600383016142ca565b916001600160401b036004820154169260058201546133ea60068401549260ff600860078701549601541695604051998a99610120928b5260208b015260408a01528060608a015288019061436c565b94608087015260a086015260c085015260e084015215156101008301520390f35b34610b2b575f366003190112610b2b57613423614b35565b5f80546001600160a01b0319811682556001600160a01b03167f8be0079c531659141344cd1fd0a4f28419497f9722a3daafe3b4186f6b6457e08280a3005b34610b2b576020366003190112610b2b576004355f526008602052602060018060a01b0360405f205416604051908152f35b34610b2b575f366003190112610b2b576020600154604051908152f35b34610b2b5760a0366003190112610b2b576134ca614136565b6134d261414c565b906064356001600160401b038111610b2b576134f290369060040161418e565b90926134fc614178565b9160018060a01b038094165f5261353c610521602096600788528660405f205495165f5260405f2054936135318615156145c4565b61051a85151561461a565b916040519461354a86614273565b6001906001875287870190883683378561356389614521565b525f805160206154f5833981519152541691823b15610b2b57604051637d6e912360e11b8152600481018a90529751602489018190528892604484019290915f5b8c8282106135e057505050505091815f81819503925af1948515610b07576131a3956135d1575b50614c57565b6135da90614229565b866135cb565b845186528c9650948501949093019282016135a4565b34610b2b575f366003190112610b2b5760206040516001600160401b037f0000000000000000000000000000000000000000000000000000000000000000168152f35b34610b2b576020366003190112610b2b57600435805f52600360205261366b60ff600160405f20015460401c16614578565b5f52600360205260206001600160401b03600160405f20015416604051908152f35b34610b2b576020366003190112610b2b576004355f526003602052602060ff600160405f20015460401c166040519015158152f35b34610b2b576020366003190112610b2b576004355f52600460205260e060405f20805490600181015490600281015460038201546001600160401b039160ff60056004860154950154169460405196875260208701526040860152818116606086015260401c16608084015260a0830152151560c0820152f35b34610b2b57602080600319360112610b2b57613756614162565b905f6080604051613766816141f3565b828152828482015282604082015282606082015201526001600160401b0380921691825f526006825260ff600460405f20015416156138175760a0925f526006825260405f20604051916137b9836141f3565b8154169283835260018201549080840191825260028301549160408501928352608060ff6004600387015496606089019788520154169501941515855260405195865251908501525160408401525160608301525115156080820152f35b60405162461bcd60e51b815260048101839052601a60248201527f4556564d3a20626c6f636b20646f6573206e6f742065786973740000000000006044820152606490fd5b34610b2b576020366003190112610b2b57602061395e600435613880811515614470565b7fa7dc1a465e051a20188a9da320ec4dd74d2c816b5881ae8afc3f15c0c7990246835f54926001600160401b0380946001600160401b0360a01b6138c8838360a01c166144d3565b60a01b16906001600160401b0360a01b191617805f5560a01c16948594826002556004604051916138f8836141f3565b8783528583018581526040840142815260608501915f83526080860193600185528b5f5260068a5260405f209651166001600160401b031987541617865551600186015551600285015551600384015551151591019060ff801983541691151516179055565b604051908152a2604051908152f35b34610b2b57602080600319360112610b2b57600435905f60c06040516139928161420e565b82815282848201528260408201528260608201528260808201528260a08201520152815f526004815260ff600560405f2001541615613a765760e0915f526004815260405f20604051906139e58261420e565b8054928383526001820154818401908152600283015491604085019283526003840154916001600160401b03938492606088019284861684528460808a019660401c16865260c060ff600560048b01549a60a08d019b8c5201541699019815158952604051998a52519089015251604088015251166060860152511660808401525160a083015251151560c0820152f35b6064906040519062461bcd60e51b825280600483015260248201527f4556564d3a207472616e73616374696f6e20646f6573206e6f742065786973746044820152fd5b34610b2b576020366003190112610b2b576001600160a01b03613ada614136565b165f526007602052602060405f2054604051908152f35b34610b2b576020366003190112610b2b576004356001600160401b038111610b2b5736602382011215610b2b576001600160401b03816004013511610b2b57366024826004013560051b83010111610b2b575f9081600482013515613f2a57613b5d82600401356144bc565b91613b6b60405193846142a9565b6004810135808452613b7c906144bc565b601f19013660208501375f5467ffffffffffffffff60a01b613baa60a083901c6001600160401b03166144d3565b60a01b16906001600160401b0360a01b19161790815f55613c6760025460405190613bd4826141f3565b6001600160401b038560a01c16825260208201524260408201525f6060820152600160808201526001600160401b038460a01c165f5260066020526004608060405f20926001600160401b038151166001600160401b03198554161784556020810151600185015560408101516002850155606081015160038501550151151591019060ff801983541691151516179055565b5f905b80600401358210613d505750508115613cd1575b5091906040519283926060840191845260208401526060604084015281518091526020608084019201905f5b818110613cb8575050500390f35b8251845285945060209384019390920191600101613caa565b5f54905f196001600160401b038360a01c1601916001600160401b0383116128da5767ffffffffffffffff60a01b191660a092831b67ffffffffffffffff60a01b16175f908155911c6001600160401b031681526006602052604081208181556001810182905560028101829055600381018290556004015583613c7e565b9094613d64868360040135602485016144eb565b356020613d79888560040135602487016144eb565b0135906040613d90898660040135602488016144eb565b013591613da5898660040135602488016144eb565b606081013590601e1981360301821215610b2b5701918235926001600160401b038411610b2b57602001908336038213610b2b576080613ded8c896004013560248b016144eb565b0135936001600160401b038516809503610b2b57602094604051968795869463b8e9884160e01b865260048601526024850152604484015260c060648401528160c48401528160e494858501375f84838501015260848301525f60a4830152601f801991011681010301815f305af15f9181613ef6575b50613e8a5750613e816001915f613e7b898961452e565b52614542565b955b0190613c6a565b93613e9d9085613e7b89899a959a61452e565b935f526004602052613ec16001600160401b038460a01c16600360405f2001614550565b6001600160401b038360a01c165f526006602052600360405f2001908154916001830183116128da5760018093019055613e83565b9091506020813d602011613f22575b81613f12602093836142a9565b81010312610b2b57519088613e64565b3d9150613f05565b60405162461bcd60e51b815260206004820152601160248201527008aacac9a7440cadae0e8f240c4c2e8c6d607b1b6044820152606490fd5b34610b2b57602080600319360112610b2b577f85026918a2898147e1e26fa12a4327e81cf8947549e27ba43270dec91a9398f790600435613fa5811515614470565b806002556001600160401b03805f5460a01c16805f526006845260ff600460405f200154165f14613ff057505f5460a01c165f526006825280600160405f2001555b604051908152a1005b90600461406a9260405192614004846141f3565b818452868401868152604085019042825260608601925f84526080870194600186525f5260068a5260405f209651166001600160401b031987541617865551600186015551600285015551600384015551151591019060ff801983541691151516179055565b613fe7565b34610b2b576020366003190112610b2b57600435805f5260086020526140a260018060a01b0360405f2054163314614424565b805f52600b60205260405f2060ff1981541690557f45a02a9ab36e67594532217fa24c2b00ccb34b97cd3aad88febe02601a95ab7560206040515f8152a2005b34610b2b576020366003190112610b2b577fb37d86ac6b9b7a147a7dfca117a426eca2777948d040a341b9e7c1099f4c3b596040600435614121614b35565b600154908060015582519182526020820152a1005b600435906001600160a01b0382168203610b2b57565b602435906001600160a01b0382168203610b2b57565b600435906001600160401b0382168203610b2b57565b608435906001600160401b0382168203610b2b57565b9181601f84011215610b2b578235916001600160401b038311610b2b5760208381860195010111610b2b57565b90600182811c921680156141e9575b60208310146141d557565b634e487b7160e01b5f52602260045260245ffd5b91607f16916141ca565b60a081019081106001600160401b038211176128c657604052565b60e081019081106001600160401b038211176128c657604052565b6001600160401b0381116128c657604052565b61012081019081106001600160401b038211176128c657604052565b606081019081106001600160401b038211176128c657604052565b604081019081106001600160401b038211176128c657604052565b608081019081106001600160401b038211176128c657604052565b90601f801991011681019081106001600160401b038211176128c657604052565b9060405191825f82546142dc816141bb565b908184526020946001916001811690815f1461434a575060011461430c575b50505061430a925003836142a9565b565b5f90815285812095935091905b81831061433257505061430a93508201015f80806142fb565b85548884018501529485019487945091830191614319565b9250505061430a94925060ff191682840152151560051b8201015f80806142fb565b805180835260209291819084018484015e5f828201840152601f01601f1916010190565b610120600319820112610b2b576004359160243591604435916001600160401b0390606435828111610b2b57836143c99160040161418e565b939093926084359081168103610b2b5791606060a4359260c3190112610b2b5760c490565b6060600319820112610b2b576004359160243591604435906001600160401b038211610b2b576144209160040161418e565b9091565b1561442b57565b60405162461bcd60e51b815260206004820152601760248201527f4556564d3a206e6f74206163636f756e74206f776e65720000000000000000006044820152606490fd5b1561447757565b60405162461bcd60e51b815260206004820152601f60248201527f4556564d3a20636f6d6d69746d656e742063616e6e6f74206265207a65726f006044820152606490fd5b6001600160401b0381116128c65760051b60200190565b9060016001600160401b03809316019182116128da57565b919081101561450d5760051b81013590609e1981360301821215610b2b570190565b634e487b7160e01b5f52603260045260245ffd5b80511561450d5760200190565b805182101561450d5760209160051b010190565b5f1981146128da5760010190565b9067ffffffffffffffff60401b82549160401b169067ffffffffffffffff60401b1916179055565b1561457f57565b60405162461bcd60e51b815260206004820152601c60248201527f4556564d3a206163636f756e7420646f6573206e6f74206578697374000000006044820152606490fd5b156145cb57565b60405162461bcd60e51b815260206004820152602160248201527f4556564d3a2066726f6d2061646472657373206e6f74207265676973746572656044820152601960fa1b6064820152608490fd5b1561462157565b60405162461bcd60e51b815260206004820152601f60248201527f4556564d3a20746f2061646472657373206e6f742072656769737465726564006044820152606490fd5b9291926001600160401b0382116128c6576040519161468f601f8201601f1916602001846142a9565b829481845281830111610b2b578281602093845f960137010152565b9080614723575060015460405160609290921b6bffffffffffffffffffffffff1916602083019081527f000000000000000000000000000000000000000000000000000000000000000060c01b6001600160c01b0319166034840152603c8301919091529061471d81605c810161219c565b51902090565b600154906040519160208301936001600160601b03199060601b1684526001600160401b0360c01b7f000000000000000000000000000000000000000000000000000000000000000060c01b166034840152603c830152605c820152605c815261471d8161428e565b93929092600154926040519460208601967f0722f1d0a7b727fc754a57c4b18dcfe2a3f52340e0161b002bd3f9370d9c99388852600160f81b60408801526041870152606186015260818501526001600160401b0360c01b809260c01b1660a185015260a98401527f000000000000000000000000000000000000000000000000000000000000000060c01b1660c983015260d18201524660f18201523060601b610111820152610105815261014081018181106001600160401b038211176128c65760405251902090565b1561485f57565b60405162461bcd60e51b815260206004820152601760248201527f4556564d3a207369676e617475726520657870697265640000000000000000006044820152606490fd5b9190826060910312610b2b576040516148bc81614258565b8092803560ff81168103610b2b5760409182918452602081013560208501520135910152565b156148e957565b60405162461bcd60e51b815260206004820152601760248201527f4556564d3a20696e76616c6964207369676e61747572650000000000000000006044820152606490fd5b1561493557565b60405162461bcd60e51b815260206004820152601a60248201527f4556564d3a2066726f6d206163636f756e74206d697373696e670000000000006044820152606490fd5b1561498157565b60405162461bcd60e51b815260206004820152601860248201527f4556564d3a20746f206163636f756e74206d697373696e6700000000000000006044820152606490fd5b156149cd57565b60405162461bcd60e51b815260206004820152600f60248201526e4556564d3a20626164206e6f6e636560881b6044820152606490fd5b818110614a0f575050565b5f8155600101614a04565b15614a2157565b60405162461bcd60e51b815260206004820152601c60248201527f4556564d3a206163636f756e7420616c726561647920657869737473000000006044820152606490fd5b15614a6d57565b60405162461bcd60e51b815260206004820152601960248201527f4556564d3a206368616c6c656e6765206e6f7420666f756e64000000000000006044820152606490fd5b60085f9182815582600182015582600282015560038101614ad381546141bb565b9081614af8575b50508260048201558260058201558260068201558260078201550155565b81601f869311600114614b0f5750555b5f80614ada565b908083918252614b2e601f60208420940160051c840160018501614a04565b5555614b08565b5f546001600160a01b03163303614b4857565b60405163118cdaa760e01b8152336004820152602490fd5b6020614bb09260018060a01b0392835f805160206154d58339815191525416905f60405180978195829463045fc19560e11b8452600484015233602484015260806044840152608483019061436c565b6005606483015203925af1918215610b07575f92614c23575b505f805160206154f58339815191525416803b15610b2b57604051630f8e573b60e21b815260048101839052336024820152905f908290604490829084905af18015610b0757614c17575090565b614c2090614229565b90565b9091506020813d602011614c4f575b81614c3f602093836142a9565b81010312610b2b5751905f614bc9565b3d9150614c32565b9091925f93825f526003602052614c7a60ff600160405f20015460401c1661492e565b835f526003602052614c9860ff600160405f20015460401c1661497a565b825f52600360205260405f2091845f52614cc760405f20916001600160401b03806001870154169116146149c6565b614cd28284546151a4565b614cdd838354615257565b809282865555614ced30826152db565b614cf730836152db565b60405190614d0482614273565b6001825260203681840137614d1882614521565b525f805160206154f5833981519152546001600160a01b0316803b15610b2b576040518092637d6e912360e11b8252602482016020600484015281518091526020604484019201905f5b8181106150e45750505091815f81819503925af18015610b07576150d1575b5060405190614d8f82614273565b6001825260208201906020368337614da683614521565b525f805160206154f5833981519152546001600160a01b031690813b1561110a57604051637d6e912360e11b815260206004820152925160248401819052889284929091604484019190855b8181106150b5575050508383809203925af180156150aa57908691615096575b505060018201549160016001600160401b03614e2f8186166144d3565b166001600160401b03198516179101556001600160401b0385548160a01b614e5b838360a01c166144d3565b60a01b16908260a01b19161780875560a01c16855260066020526040852060ff600482015416155f146150615750614f196001600160401b03865460a01c16600460405191614ea9836141f3565b80835260208301898152604084014281526060850191600183526080860193600185528c5260066020526001600160401b0360408d209651166001600160401b031987541617865551600186015551600285015551600384015551151591019060ff801983541691151516179055565b6001600160401b03855460a01c167fa7dc1a465e051a20188a9da320ec4dd74d2c816b5881ae8afc3f15c0c79902466020604051888152a25b600554946001860180871161504d57866001600160401b0393845f8051602061551583398151915296946150479460055561500f82825460a01c1660405190614f9a8261420e565b8b82528c6020830152856040830152848916606083015260808201524260a0820152600160c08201528583526004602052600560c0604085209280518455602081015160018501556040810151600285015561167b600385018860608401511689198254161781558860808401511690614550565b5460a01c16906040519586951690859094939291606092608083019683526001600160401b0380921660208401521660408201520152565b0390a390565b634e487b7160e01b82526011600452602482fd5b600301805490600182018092116116fb57556001600160401b03855460a01c1685526006602052426002604087200155614f52565b61509f90614229565b610ac357845f614e12565b6040513d88823e3d90fd5b825184528c965087955060209384019390920191600101614df2565b6150dc919650614229565b5f945f614d81565b8251845286945060209384019390920191600101614d62565b4660010361510a57600190565b4662aa36a70361511a5761271190565b617a694614615127575f90565b5f1990565b614c209161519b917f19457468657265756d205369676e6564204d6573736167653a0a3332000000005f52601c52603c5f206020820151916040810151905190604051936020850152604084015260ff60f81b9060f81b166060830152604182526151968261428e565b615395565b909291926153cf565b908115615247575b8015615235575b602090606460018060a01b035f805160206154d58339815191525416935f60405195869485936303056db360e31b8552600485015260248401528160448401525af1908115610b07575f91615206575090565b90506020813d60201161522d575b81615221602093836142a9565b81010312610b2b575190565b3d9150615214565b506020615240615342565b90506151b3565b9050615251615342565b906151ac565b9081156152cb575b80156152b9575b602090606460018060a01b035f805160206154d58339815191525416935f604051958694859363022f65e760e31b8552600485015260248401528160448401525af1908115610b07575f91615206575090565b5060206152c4615342565b9050615266565b90506152d5615342565b9061525f565b5f805160206154f5833981519152546001600160a01b031691823b15610b2b57604051635ca4b5b160e11b815260048101929092526001600160a01b03166024820152905f908290604490829084905af18015610b07576153395750565b61430a90614229565b5f805160206154d583398151915254604051639cd07acb60e01b81525f60048201819052600560248301529091602091839160449183916001600160a01b03165af1908115610b07575f91615206575090565b81519190604183036153c5576153be9250602082015190606060408401519301515f1a90615452565b9192909190565b50505f9160029190565b600481101561543e57806153e1575050565b600181036153fb5760405163f645eedf60e01b8152600490fd5b6002810361541c5760405163fce698f760e01b815260048101839052602490fd5b6003146154265750565b602490604051906335e2f38360e21b82526004820152fd5b634e487b7160e01b5f52602160045260245ffd5b91907f7fffffffffffffffffffffffffffffff5d576e7357a4501ddfe92f46681b20a084116154c9579160209360809260ff5f9560405194855216868401526040830152606082015282805260015afa15610b07575f516001600160a01b038116156154bf57905f905f90565b505f906001905f90565b5050505f916003919056fe9e7b61f58c47dc699ac88507c4f5bb9f121c03808c5676a8078fe583e46497019e7b61f58c47dc699ac88507c4f5bb9f121c03808c5676a8078fe583e4649700f2858de80aae431529a19609ba34fc659838f3796d09f1a5b9607169647a1751a26469706673582212205a2319605519d7d705be9e2b796bc6f9955c72593da51e5d1160b29c3dd8f50864736f6c63430008190033",
  "devdoc": {
    "details": "Phase 4A: Architecture refactored with periphery libraries This contract implements a minimal virtual blockchain with the following features: - Virtual accounts with encrypted balances (euint64) - Virtual transactions with nonce-based replay protection - Virtual block progression with state commitments - Batch transfer processing - EIP-191 signed transfers - Plan 2A secure transfers with FHE secrets - Admin functions for testing and maintenanceArchitecture: - Core functionality for accounts, transfers, and blocks - Uses EVVMSignatureVerifier library for signature operations - Interfaces defined in contracts/interfaces/ for external referenceUsage Flow: 1. Deploy contract with vChainId and evvmID 2. Users register accounts with encrypted initial balances 3. Users perform transfers using encrypted amounts 4. State commitments are calculated off-chain and submitted on-chain 5. Virtual blocks track transaction history",
    "errors": {
      "ECDSAInvalidSignature()": [
        {
          "details": "The signature derives the `address(0)`."
        }
      ],
      "ECDSAInvalidSignatureLength(uint256)": [
        {
          "details": "The signature has an invalid length."
        }
      ],
      "ECDSAInvalidSignatureS(bytes32)": [
        {
          "details": "The signature has an S value that is in the upper half order."
        }
      ],
      "OwnableInvalidOwner(address)": [
        {
          "details": "The owner is not a valid owner account. (eg. `address(0)`)"
        }
      ],
      "OwnableUnauthorizedAccount(address)": [
        {
          "details": "The caller account is not authorized to perform an operation."
        }
      ]
    },
    "events": {
      "AccountRegisteredFromAddress(address,bytes32)": {
        "params": {
          "realAddress": "The Ethereum address that was registered",
          "vaddr": "The generated virtual address"
        }
      },
      "AccountSecretUpdated(bytes32,bool)": {
        "params": {
          "enabled": "Whether FHE secret is now enabled",
          "vaddr": "The virtual address"
        }
      },
      "EvvmIDUpdated(uint256,uint256)": {
        "params": {
          "newEvvmID": "The new EVVM ID",
          "oldEvvmID": "The previous EVVM ID"
        }
      },
      "FaucetBalanceAdded(bytes32,bytes32)": {
        "params": {
          "amountAdded": "The encrypted amount that was added",
          "vaddr": "The virtual address that received the balance"
        }
      },
      "SecureTransferCancelled(bytes32,bytes32,string)": {
        "params": {
          "challengeId": "The challenge that was cancelled",
          "fromVaddr": "The source virtual address",
          "reason": "The reason for cancellation (\"expired\" or \"cancelled\")"
        }
      },
      "SecureTransferCompleted(bytes32,bytes32,bytes32,uint64,uint256)": {
        "params": {
          "challengeId": "The challenge that was completed",
          "fromVaddr": "The source virtual address",
          "nonce": "The nonce used in this transaction",
          "toVaddr": "The destination virtual address",
          "txId": "The unique transaction ID"
        }
      },
      "SecureTransferRequested(bytes32,bytes32,bytes32,uint256)": {
        "params": {
          "challengeExpiry": "Timestamp when challenge expires",
          "challengeId": "Unique identifier for the challenge",
          "fromVaddr": "The source virtual address",
          "toVaddr": "The destination virtual address"
        }
      },
      "SignedTransferApplied(bytes32,bytes32,address,uint64,uint256,uint256)": {
        "params": {
          "deadline": "The deadline that was set for the signature",
          "fromVaddr": "The source virtual address",
          "nonce": "The nonce used in this transaction",
          "signer": "The address that signed the transaction",
          "toVaddr": "The destination virtual address",
          "txId": "The unique transaction ID"
        }
      },
      "StateCommitmentUpdated(bytes32)": {
        "params": {
          "newCommitment": "The new state commitment (e.g., Merkle root)"
        }
      },
      "VirtualAccountRegistered(bytes32,uint64)": {
        "params": {
          "initialNonce": "The initial nonce (always 0 for new accounts)",
          "vaddr": "The virtual address of the registered account"
        }
      },
      "VirtualBlockCreated(uint64,bytes32)": {
        "params": {
          "stateCommitment": "The state commitment for this block",
          "vBlockNumber": "The virtual block number"
        }
      },
      "VirtualTransferApplied(bytes32,bytes32,bytes32,uint64,uint64,uint256)": {
        "params": {
          "amountEnc": "The encrypted amount transferred",
          "fromVaddr": "The source virtual address",
          "nonce": "The nonce used in this transaction",
          "toVaddr": "The destination virtual address",
          "txId": "The unique transaction ID",
          "vBlockNumber": "The virtual block number when the transaction was applied"
        }
      }
    },
    "kind": "dev",
    "methods": {
      "_applyTransferInternal(bytes32,bytes32,bytes32,bytes,uint64,bool)": {
        "details": "This public function allows batch processing with try/catchShould only be called internally or via applyTransfer()",
        "params": {
          "incrementBlock": "If true, increments vBlockNumber (for single transfers). If false, caller handles it (for batches)"
        }
      },
      "accountExists(bytes32)": {
        "params": {
          "vaddr": "Virtual address of the account"
        },
        "returns": {
          "_0": "exists True if the account exists"
        }
      },
      "applySignedTransfer(bytes32,bytes32,bytes32,bytes,uint64,uint256,(uint8,bytes32,bytes32))": {
        "details": "Requires valid EIP-191 signature from the account owner (registered address)This function provides cryptographic authorization beyond nonce-only protection",
        "params": {
          "amount": "External encrypted handle of the amount",
          "deadline": "Timestamp after which signature expires",
          "expectedNonce": "Nonce for replay protection",
          "fromVaddr": "Source virtual account",
          "inputProof": "ZK proof validating the encrypted input",
          "sig": "EIP-191 signature from the account owner",
          "toVaddr": "Destination virtual account"
        },
        "returns": {
          "txId": "Transaction ID"
        }
      },
      "applyTransfer(bytes32,bytes32,bytes32,bytes,uint64)": {
        "details": "Transaction model: (from, to, amount, nonce, chainId)For MVP we don't validate signatures, only check nonce and existenceThis function increments the virtual block number automaticallyReverts if:      - Source or destination account doesn't exist      - Nonce doesn't match the account's current nonceEmits VirtualTransferApplied eventUpdates virtual block number and stores transaction",
        "params": {
          "amount": "External encrypted handle of the amount",
          "expectedNonce": "Nonce that the caller believes `fromVaddr` has",
          "fromVaddr": "Source virtual account",
          "inputProof": "ZK proof validating the encrypted input",
          "toVaddr": "Destination virtual account"
        },
        "returns": {
          "txId": "Transaction ID (unique identifier for this transaction)"
        }
      },
      "applyTransferBatch((bytes32,bytes32,bytes32,bytes,uint64)[])": {
        "details": "All successful transfers are grouped into one virtual block. Failed transfers are skipped.This function uses try/catch to handle individual transfer failures gracefullyIf all transfers fail, the block number increment is revertedReverts if the transfers array is emptyEach successful transfer emits a VirtualTransferApplied event",
        "params": {
          "transfers": "Array of transfer parameters to process"
        },
        "returns": {
          "failedTxs": "Number of failed transfers",
          "successfulTxs": "Number of successfully processed transfers",
          "txIds": "Array of transaction IDs for successful transfers (0 for failed ones)"
        }
      },
      "cancelSecureTransfer(bytes32)": {
        "details": "Anyone can cancel expired challenges (cleanup), only owner can cancel valid ones",
        "params": {
          "challengeId": "The challenge ID to cancel"
        }
      },
      "completeSecureTransfer(bytes32,bytes32,bytes)": {
        "details": "Only increments nonce after successful secret verificationIf secret is invalid, transfer amount becomes zero (no funds moved)",
        "params": {
          "challengeId": "The challenge ID from requestSecureTransfer",
          "secret": "The encrypted secret (must match stored secret)",
          "secretProof": "ZK proof for the secret"
        },
        "returns": {
          "txId": "Transaction ID"
        }
      },
      "constructor": {
        "params": {
          "_evvmID": "EVVM ID for future signature verification",
          "_vChainId": "Unique virtual chain ID"
        }
      },
      "createVirtualBlock(bytes32)": {
        "details": "This function allows explicit block creation with a cryptographic commitmentValidates that the commitment is not empty and that block number increments correctly",
        "params": {
          "newCommitment": "The state commitment for the new block (e.g., Merkle root of all accounts)"
        },
        "returns": {
          "blockNumber": "The newly created block number"
        }
      },
      "disableAccountSecret(bytes32)": {
        "details": "Only callable by the registered address ownerThe secret is kept in storage (user can re-enable without re-setting)",
        "params": {
          "vaddr": "The virtual address to disable secret for"
        }
      },
      "enableAccountSecret(bytes32)": {
        "details": "Only callable by the registered address ownerReverts if no secret was ever set",
        "params": {
          "vaddr": "The virtual address to re-enable secret for"
        }
      },
      "faucetAddBalance(bytes32,bytes32,bytes)": {
        "details": "This function is useful for testing and developmentIt adds encrypted balance to an existing account without affecting the nonce",
        "params": {
          "amount": "External encrypted handle for the amount to add",
          "inputProof": "ZK proof validating the encrypted input",
          "vaddr": "The virtual address of the account to add balance to"
        }
      },
      "generateVaddrFromAddress(address,bytes32)": {
        "details": "This is a helper function to create deterministic vaddr from Ethereum addressesFormula: keccak256(abi.encodePacked(realAddress, vChainId, evvmID, salt))",
        "params": {
          "realAddress": "The Ethereum address to convert",
          "salt": "Optional salt for additional entropy (use bytes32(0) for default)"
        },
        "returns": {
          "_0": "vaddr The generated virtual address"
        }
      },
      "getAccount(bytes32)": {
        "details": "Returns balance (encrypted), nonce, and exists flag",
        "params": {
          "vaddr": "Virtual address of the account"
        },
        "returns": {
          "_0": "account The complete VirtualAccount struct"
        }
      },
      "getBlockInfo(uint64)": {
        "details": "Returns block number, state commitment, timestamp, and transaction count",
        "params": {
          "blockNumber": "The virtual block number to query"
        },
        "returns": {
          "blockInfo": "The virtual block struct with all block information"
        }
      },
      "getEncryptedBalance(bytes32)": {
        "details": "Frontend uses cofhesdkClient.decryptHandle(...) to see the plaintext value",
        "params": {
          "vaddr": "Virtual address of the account"
        },
        "returns": {
          "_0": "balance Encrypted balance (euint64)"
        }
      },
      "getNonce(bytes32)": {
        "params": {
          "vaddr": "Virtual address of the account"
        },
        "returns": {
          "_0": "nonce Current nonce (public)"
        }
      },
      "getSecureTransferChallenge(bytes32)": {
        "params": {
          "challengeId": "The challenge ID to query"
        },
        "returns": {
          "_0": "challenge The challenge details"
        }
      },
      "getTransferMessageHash(bytes32,bytes32,bytes32,uint64,uint256)": {
        "details": "This hash includes all contextual data to prevent various replay attacks",
        "params": {
          "amountCommitment": "Commitment to encrypted amount (hash of ciphertext handle)",
          "deadline": "Expiration timestamp for the signature",
          "fromVaddr": "Source virtual address",
          "nonce": "Transaction nonce for replay protection",
          "toVaddr": "Destination virtual address"
        },
        "returns": {
          "_0": "messageHash The hash to be signed by the account owner"
        }
      },
      "getVaddrFromAddress(address)": {
        "details": "Returns bytes32(0) if the address has not been registered via registerAccountFromAddress()",
        "params": {
          "realAddress": "The Ethereum address to query"
        },
        "returns": {
          "_0": "vaddr The virtual address associated with the Ethereum address, or bytes32(0) if not registered"
        }
      },
      "getVirtualTransaction(uint256)": {
        "details": "Returns a struct with all transaction details including encrypted amount",
        "params": {
          "txId": "The transaction ID to query"
        },
        "returns": {
          "_0": "tx The virtual transaction struct"
        }
      },
      "hasSecretEnabled(bytes32)": {
        "params": {
          "vaddr": "The virtual address to check"
        },
        "returns": {
          "_0": "enabled True if FHE secret is enabled for this account"
        }
      },
      "owner()": {
        "details": "Returns the address of the current owner."
      },
      "registerAccount(bytes32,bytes32,bytes)": {
        "details": "vaddr can be keccak256(pubkey), hash of real address, or any unique bytes32The account will be initialized with nonce 0 and the provided encrypted balanceFHE permissions are automatically set for the contract and senderReverts if the account already existsEmits VirtualAccountRegistered event",
        "params": {
          "initialBalance": "External encrypted handle for the initial balance",
          "inputProof": "ZK proof validating the encrypted input",
          "vaddr": "Virtual identifier of the account (pseudonym, not linked on-chain to real user)"
        }
      },
      "registerAccountFromAddress(address,bytes32,bytes)": {
        "details": "Automatically generates vaddr from the Ethereum address using vChainId and evvmIDThis function creates a mapping between the real address and the generated vaddrReverts if the account already exists (either by address or by generated vaddr)Emits AccountRegisteredFromAddress event",
        "params": {
          "initialBalance": "External encrypted handle for the initial balance",
          "inputProof": "ZK proof validating the encrypted input",
          "realAddress": "The Ethereum address to register"
        }
      },
      "renounceOwnership()": {
        "details": "Leaves the contract without owner. It will not be possible to call `onlyOwner` functions. Can only be called by the current owner. NOTE: Renouncing ownership will leave the contract without an owner, thereby disabling any functionality that is only available to the owner."
      },
      "requestPay(address,address,bytes32,bytes,uint64)": {
        "details": "This function bridges the gap between traditional contracts and the virtual blockchainIt looks up the vaddr for each address and calls applyTransfer()Reverts if either address is not registeredReverts with the same errors as applyTransfer() (bad nonce, account missing, etc.)",
        "params": {
          "amount": "External encrypted handle of the amount",
          "expectedNonce": "Nonce that the caller believes the sender's account has",
          "from": "The Ethereum address of the sender",
          "inputProof": "ZK proof validating the encrypted input",
          "to": "The Ethereum address of the recipient"
        },
        "returns": {
          "txId": "Transaction ID (unique identifier for this transaction)"
        }
      },
      "requestPaySigned(address,address,bytes32,bytes,uint64,uint256,(uint8,bytes32,bytes32))": {
        "details": "This function provides cryptographic authorization for address-based transfersThe signature must be from the `from` address",
        "params": {
          "amount": "External encrypted handle of the amount",
          "deadline": "Timestamp after which signature expires",
          "expectedNonce": "Nonce for replay protection",
          "from": "The Ethereum address of the sender (must sign the transaction)",
          "inputProof": "ZK proof validating the encrypted input",
          "sig": "EIP-191 signature from the sender",
          "to": "The Ethereum address of the recipient"
        },
        "returns": {
          "txId": "Transaction ID (unique identifier for this transaction)"
        }
      },
      "requestSecureTransfer(bytes32,bytes32,bytes32,bytes,uint64,uint256,(uint8,bytes32,bytes32))": {
        "details": "Verifies signature but does NOT increment nonceUser must call completeSecureTransfer within CHALLENGE_EXPIRY time",
        "params": {
          "amount": "Encrypted amount handle",
          "deadline": "Signature deadline",
          "expectedNonce": "Nonce at time of request",
          "fromVaddr": "Source virtual account",
          "inputProof": "ZK proof for amount",
          "sig": "EIP-191 signature from account owner",
          "toVaddr": "Destination virtual account"
        },
        "returns": {
          "challengeId": "Unique identifier for completing the transfer"
        }
      },
      "setAccountSecret(bytes32,bytes32,bytes)": {
        "details": "Only callable by the registered address ownerOnce set, transfers can use the challenge-response protocol for extra security",
        "params": {
          "inputProof": "ZK proof for the encrypted secret",
          "secret": "The encrypted secret value (user knows plaintext)",
          "vaddr": "The virtual address to set secret for"
        }
      },
      "setEvvmID(uint256)": {
        "details": "This function allows the contract owner to update the EVVM IDThe EVVM ID is used for signature verification and vaddr generation",
        "params": {
          "newEvvmID": "The new EVVM ID to set"
        }
      },
      "transferOwnership(address)": {
        "details": "Transfers ownership of the contract to a new account (`newOwner`). Can only be called by the current owner."
      },
      "updateStateCommitment(bytes32)": {
        "details": "Useful for updating the commitment when state changes occurValidates that the commitment is not emptyUpdates the current block's commitment if it existsReverts if newCommitment is zeroEmits StateCommitmentUpdated event",
        "params": {
          "newCommitment": "The new state commitment (must not be bytes32(0))"
        }
      },
      "updateStateCommitmentAfterBatch(bytes32)": {
        "details": "This function should be called after applyTransferBatch() to update the commitmentUseful for maintaining accurate state commitments after batch operations",
        "params": {
          "newCommitment": "The new state commitment calculated off-chain after the batch"
        }
      }
    },
    "stateVariables": {
      "CHALLENGE_EXPIRY": {
        "details": "User must complete Phase B within this time after Phase A"
      },
      "accountSecrets": {
        "details": "Only the account owner knows the plaintext value"
      },
      "accounts": {
        "details": "vaddr is a pseudonymous identifier (e.g. keccak256(pubkey) or hash of real address)"
      },
      "addressToVaddr": {
        "details": "Enables compatibility layer for traditional contracts"
      },
      "fheSecretEnabled": {
        "details": "When true, transfers require secret verification via challenge-response"
      },
      "nextTxId": {
        "details": "Starts at 1, increments for each new transaction"
      },
      "pendingSecureTransfers": {
        "details": "Phase A creates challenges, Phase B completes them"
      },
      "stateCommitment": {
        "details": "This can be a Merkle root, hash of all account states, or any state commitment scheme"
      },
      "vaddrToAddress": {
        "details": "Enables lookup of real address from virtual address"
      },
      "virtualBlocks": {
        "details": "Stores metadata about each virtual block"
      },
      "virtualTransactions": {
        "details": "txId is a unique identifier for each transaction"
      }
    },
    "title": "EVVM Core - Virtual Blockchain with FHE",
    "version": 1
  },
  "userdoc": {
    "errors": {
      "ZamaProtocolUnsupported()": [
        {
          "notice": "Returned if the Zama protocol is not supported on the current chain"
        }
      ]
    },
    "events": {
      "AccountRegisteredFromAddress(address,bytes32)": {
        "notice": "Emitted when an account is registered from an Ethereum address"
      },
      "AccountSecretUpdated(bytes32,bool)": {
        "notice": "Emitted when account secret is set, updated, or disabled"
      },
      "EvvmIDUpdated(uint256,uint256)": {
        "notice": "Emitted when the EVVM ID is updated"
      },
      "FaucetBalanceAdded(bytes32,bytes32)": {
        "notice": "Emitted when balance is added via faucet"
      },
      "SecureTransferCancelled(bytes32,bytes32,string)": {
        "notice": "Emitted when a secure transfer challenge is cancelled or expires"
      },
      "SecureTransferCompleted(bytes32,bytes32,bytes32,uint64,uint256)": {
        "notice": "Emitted when a secure transfer is completed (Phase B)"
      },
      "SecureTransferRequested(bytes32,bytes32,bytes32,uint256)": {
        "notice": "Emitted when a secure transfer challenge is created (Phase A)"
      },
      "SignedTransferApplied(bytes32,bytes32,address,uint64,uint256,uint256)": {
        "notice": "Emitted when a signed virtual transaction is applied"
      },
      "StateCommitmentUpdated(bytes32)": {
        "notice": "Emitted when the virtual state commitment is updated"
      },
      "VirtualAccountRegistered(bytes32,uint64)": {
        "notice": "Emitted when a new virtual account is registered"
      },
      "VirtualBlockCreated(uint64,bytes32)": {
        "notice": "Emitted when a virtual block is created"
      },
      "VirtualTransferApplied(bytes32,bytes32,bytes32,uint64,uint64,uint256)": {
        "notice": "Emitted when a virtual transaction is applied"
      }
    },
    "kind": "user",
    "methods": {
      "CHALLENGE_EXPIRY()": {
        "notice": "Challenge expiration time (5 minutes)"
      },
      "EVVM_DOMAIN()": {
        "notice": "Domain identifier for EVVM signatures (prevents cross-protocol replay)"
      },
      "SIGNATURE_VERSION()": {
        "notice": "Signature scheme version (allows future upgrades without breaking existing signatures)"
      },
      "_applyTransferInternal(bytes32,bytes32,bytes32,bytes,uint64,bool)": {
        "notice": "Internal function to apply a transfer (used by batch processing)"
      },
      "accountExists(bytes32)": {
        "notice": "Checks if a virtual account exists"
      },
      "addressToVaddr(address)": {
        "notice": "Map of Ethereum addresses to virtual addresses"
      },
      "applySignedTransfer(bytes32,bytes32,bytes32,bytes,uint64,uint256,(uint8,bytes32,bytes32))": {
        "notice": "Applies a signed transfer within the virtual blockchain"
      },
      "applyTransfer(bytes32,bytes32,bytes32,bytes,uint64)": {
        "notice": "Applies a transfer within the virtual blockchain"
      },
      "applyTransferBatch((bytes32,bytes32,bytes32,bytes,uint64)[])": {
        "notice": "Processes multiple transfers in a single virtual block"
      },
      "cancelSecureTransfer(bytes32)": {
        "notice": "Cancel an expired or unwanted challenge"
      },
      "completeSecureTransfer(bytes32,bytes32,bytes)": {
        "notice": "Phase B: Complete secure transfer (verifies secret)"
      },
      "constructor": {
        "notice": "EVVM Core contract constructor"
      },
      "createVirtualBlock(bytes32)": {
        "notice": "Creates a new virtual block with a state commitment"
      },
      "disableAccountSecret(bytes32)": {
        "notice": "Disables FHE secret requirement for an account"
      },
      "enableAccountSecret(bytes32)": {
        "notice": "Re-enables a previously set FHE secret"
      },
      "evvmID()": {
        "notice": "EVVM ID for future signature verification"
      },
      "faucetAddBalance(bytes32,bytes32,bytes)": {
        "notice": "Adds balance to a virtual account via faucet (admin only, for testing)"
      },
      "fheSecretEnabled(bytes32)": {
        "notice": "Flag to enable FHE secret requirement per account"
      },
      "generateVaddrFromAddress(address,bytes32)": {
        "notice": "Generates a virtual address from an Ethereum address and optional salt"
      },
      "getAccount(bytes32)": {
        "notice": "Returns the complete virtual account information"
      },
      "getBlockInfo(uint64)": {
        "notice": "Retrieves information about a specific virtual block"
      },
      "getEncryptedBalance(bytes32)": {
        "notice": "Returns the encrypted balance of a virtual account"
      },
      "getNonce(bytes32)": {
        "notice": "Returns the current nonce of a virtual account"
      },
      "getSecureTransferChallenge(bytes32)": {
        "notice": "Get details of a pending secure transfer challenge"
      },
      "getTransferMessageHash(bytes32,bytes32,bytes32,uint64,uint256)": {
        "notice": "Creates the message hash for a signed transfer operation"
      },
      "getVaddrFromAddress(address)": {
        "notice": "Gets the virtual address for a given Ethereum address"
      },
      "getVirtualTransaction(uint256)": {
        "notice": "Retrieves a virtual transaction by its ID"
      },
      "hasSecretEnabled(bytes32)": {
        "notice": "Checks if an account has FHE secret enabled"
      },
      "nextTxId()": {
        "notice": "Next transaction ID to be assigned"
      },
      "pendingSecureTransfers(bytes32)": {
        "notice": "Map of challenge IDs to pending secure transfers"
      },
      "registerAccount(bytes32,bytes32,bytes)": {
        "notice": "Registers a new account in the virtual blockchain with initial encrypted balance"
      },
      "registerAccountFromAddress(address,bytes32,bytes)": {
        "notice": "Registers a new account from an Ethereum address (convenience function)"
      },
      "requestPay(address,address,bytes32,bytes,uint64)": {
        "notice": "Compatibility function to request payment using Ethereum addresses instead of vaddr"
      },
      "requestPaySigned(address,address,bytes32,bytes,uint64,uint256,(uint8,bytes32,bytes32))": {
        "notice": "Signed version of requestPay - requires EIP-191 signature from sender"
      },
      "requestSecureTransfer(bytes32,bytes32,bytes32,bytes,uint64,uint256,(uint8,bytes32,bytes32))": {
        "notice": "Phase A: Request a secure transfer (creates challenge)"
      },
      "setAccountSecret(bytes32,bytes32,bytes)": {
        "notice": "Sets up an encrypted secret for FHE authentication"
      },
      "setEvvmID(uint256)": {
        "notice": "Updates the EVVM ID (admin only)"
      },
      "stateCommitment()": {
        "notice": "Cryptographic commitment to the current state of the virtual blockchain"
      },
      "updateStateCommitment(bytes32)": {
        "notice": "Updates the state commitment without creating a new block"
      },
      "updateStateCommitmentAfterBatch(bytes32)": {
        "notice": "Updates the state commitment after a batch of transfers"
      },
      "vBlockNumber()": {
        "notice": "Current height of the \"virtual blockchain\""
      },
      "vChainId()": {
        "notice": "Virtual chain ID (immutable)"
      },
      "vaddrToAddress(bytes32)": {
        "notice": "Map of virtual addresses to Ethereum addresses (reverse mapping)"
      },
      "virtualBlocks(uint64)": {
        "notice": "Map of block numbers to virtual block information"
      },
      "virtualTransactions(uint256)": {
        "notice": "Map of transaction IDs to virtual transactions"
      }
    },
    "notice": "MVP of EVVM Core as \"virtual blockchain\" using FHE for private balancesMigrated from Fhenix CoFHE to Zama FHEVMPhase 2: EIP-191 signature validation addedPhase 2A: Plan 2A challenge-response authentication added",
    "version": 1
  },
  "storageLayout": {
    "storage": [
      {
        "astId": 39180,
        "contract": "contracts/core/EVVM.core.sol:EVVMCore",
        "label": "_owner",
        "offset": 0,
        "slot": "0",
        "type": "t_address"
      },
      {
        "astId": 44649,
        "contract": "contracts/core/EVVM.core.sol:EVVMCore",
        "label": "vBlockNumber",
        "offset": 20,
        "slot": "0",
        "type": "t_uint64"
      },
      {
        "astId": 44652,
        "contract": "contracts/core/EVVM.core.sol:EVVMCore",
        "label": "evvmID",
        "offset": 0,
        "slot": "1",
        "type": "t_uint256"
      },
      {
        "astId": 44655,
        "contract": "contracts/core/EVVM.core.sol:EVVMCore",
        "label": "stateCommitment",
        "offset": 0,
        "slot": "2",
        "type": "t_bytes32"
      },
      {
        "astId": 44661,
        "contract": "contracts/core/EVVM.core.sol:EVVMCore",
        "label": "accounts",
        "offset": 0,
        "slot": "3",
        "type": "t_mapping(t_bytes32,t_struct(VirtualAccount)44580_storage)"
      },
      {
        "astId": 44667,
        "contract": "contracts/core/EVVM.core.sol:EVVMCore",
        "label": "virtualTransactions",
        "offset": 0,
        "slot": "4",
        "type": "t_mapping(t_uint256,t_struct(VirtualTransaction)44597_storage)"
      },
      {
        "astId": 44670,
        "contract": "contracts/core/EVVM.core.sol:EVVMCore",
        "label": "nextTxId",
        "offset": 0,
        "slot": "5",
        "type": "t_uint256"
      },
      {
        "astId": 44676,
        "contract": "contracts/core/EVVM.core.sol:EVVMCore",
        "label": "virtualBlocks",
        "offset": 0,
        "slot": "6",
        "type": "t_mapping(t_uint64,t_struct(VirtualBlock)44622_storage)"
      },
      {
        "astId": 44681,
        "contract": "contracts/core/EVVM.core.sol:EVVMCore",
        "label": "addressToVaddr",
        "offset": 0,
        "slot": "7",
        "type": "t_mapping(t_address,t_bytes32)"
      },
      {
        "astId": 44686,
        "contract": "contracts/core/EVVM.core.sol:EVVMCore",
        "label": "vaddrToAddress",
        "offset": 0,
        "slot": "8",
        "type": "t_mapping(t_bytes32,t_address)"
      },
      {
        "astId": 44692,
        "contract": "contracts/core/EVVM.core.sol:EVVMCore",
        "label": "pendingSecureTransfers",
        "offset": 0,
        "slot": "9",
        "type": "t_mapping(t_bytes32,t_struct(SecureTransferChallenge)44643_storage)"
      },
      {
        "astId": 44698,
        "contract": "contracts/core/EVVM.core.sol:EVVMCore",
        "label": "accountSecrets",
        "offset": 0,
        "slot": "10",
        "type": "t_mapping(t_bytes32,t_userDefinedValueType(euint64)49025)"
      },
      {
        "astId": 44703,
        "contract": "contracts/core/EVVM.core.sol:EVVMCore",
        "label": "fheSecretEnabled",
        "offset": 0,
        "slot": "11",
        "type": "t_mapping(t_bytes32,t_bool)"
      }
    ],
    "types": {
      "t_address": {
        "encoding": "inplace",
        "label": "address",
        "numberOfBytes": "20"
      },
      "t_bool": {
        "encoding": "inplace",
        "label": "bool",
        "numberOfBytes": "1"
      },
      "t_bytes32": {
        "encoding": "inplace",
        "label": "bytes32",
        "numberOfBytes": "32"
      },
      "t_bytes_storage": {
        "encoding": "bytes",
        "label": "bytes",
        "numberOfBytes": "32"
      },
      "t_mapping(t_address,t_bytes32)": {
        "encoding": "mapping",
        "key": "t_address",
        "label": "mapping(address => bytes32)",
        "numberOfBytes": "32",
        "value": "t_bytes32"
      },
      "t_mapping(t_bytes32,t_address)": {
        "encoding": "mapping",
        "key": "t_bytes32",
        "label": "mapping(bytes32 => address)",
        "numberOfBytes": "32",
        "value": "t_address"
      },
      "t_mapping(t_bytes32,t_bool)": {
        "encoding": "mapping",
        "key": "t_bytes32",
        "label": "mapping(bytes32 => bool)",
        "numberOfBytes": "32",
        "value": "t_bool"
      },
      "t_mapping(t_bytes32,t_struct(SecureTransferChallenge)44643_storage)": {
        "encoding": "mapping",
        "key": "t_bytes32",
        "label": "mapping(bytes32 => struct EVVMCore.SecureTransferChallenge)",
        "numberOfBytes": "32",
        "value": "t_struct(SecureTransferChallenge)44643_storage"
      },
      "t_mapping(t_bytes32,t_struct(VirtualAccount)44580_storage)": {
        "encoding": "mapping",
        "key": "t_bytes32",
        "label": "mapping(bytes32 => struct EVVMCore.VirtualAccount)",
        "numberOfBytes": "32",
        "value": "t_struct(VirtualAccount)44580_storage"
      },
      "t_mapping(t_bytes32,t_userDefinedValueType(euint64)49025)": {
        "encoding": "mapping",
        "key": "t_bytes32",
        "label": "mapping(bytes32 => euint64)",
        "numberOfBytes": "32",
        "value": "t_userDefinedValueType(euint64)49025"
      },
      "t_mapping(t_uint256,t_struct(VirtualTransaction)44597_storage)": {
        "encoding": "mapping",
        "key": "t_uint256",
        "label": "mapping(uint256 => struct EVVMCore.VirtualTransaction)",
        "numberOfBytes": "32",
        "value": "t_struct(VirtualTransaction)44597_storage"
      },
      "t_mapping(t_uint64,t_struct(VirtualBlock)44622_storage)": {
        "encoding": "mapping",
        "key": "t_uint64",
        "label": "mapping(uint64 => struct EVVMCore.VirtualBlock)",
        "numberOfBytes": "32",
        "value": "t_struct(VirtualBlock)44622_storage"
      },
      "t_struct(SecureTransferChallenge)44643_storage": {
        "encoding": "inplace",
        "label": "struct EVVMCore.SecureTransferChallenge",
        "members": [
          {
            "astId": 44625,
            "contract": "contracts/core/EVVM.core.sol:EVVMCore",
            "label": "fromVaddr",
            "offset": 0,
            "slot": "0",
            "type": "t_bytes32"
          },
          {
            "astId": 44627,
            "contract": "contracts/core/EVVM.core.sol:EVVMCore",
            "label": "toVaddr",
            "offset": 0,
            "slot": "1",
            "type": "t_bytes32"
          },
          {
            "astId": 44630,
            "contract": "contracts/core/EVVM.core.sol:EVVMCore",
            "label": "amount",
            "offset": 0,
            "slot": "2",
            "type": "t_userDefinedValueType(externalEuint64)49221"
          },
          {
            "astId": 44632,
            "contract": "contracts/core/EVVM.core.sol:EVVMCore",
            "label": "inputProof",
            "offset": 0,
            "slot": "3",
            "type": "t_bytes_storage"
          },
          {
            "astId": 44634,
            "contract": "contracts/core/EVVM.core.sol:EVVMCore",
            "label": "expectedNonce",
            "offset": 0,
            "slot": "4",
            "type": "t_uint64"
          },
          {
            "astId": 44636,
            "contract": "contracts/core/EVVM.core.sol:EVVMCore",
            "label": "deadline",
            "offset": 0,
            "slot": "5",
            "type": "t_uint256"
          },
          {
            "astId": 44638,
            "contract": "contracts/core/EVVM.core.sol:EVVMCore",
            "label": "challengeExpiry",
            "offset": 0,
            "slot": "6",
            "type": "t_uint256"
          },
          {
            "astId": 44640,
            "contract": "contracts/core/EVVM.core.sol:EVVMCore",
            "label": "challengeHash",
            "offset": 0,
            "slot": "7",
            "type": "t_bytes32"
          },
          {
            "astId": 44642,
            "contract": "contracts/core/EVVM.core.sol:EVVMCore",
            "label": "exists",
            "offset": 0,
            "slot": "8",
            "type": "t_bool"
          }
        ],
        "numberOfBytes": "288"
      },
      "t_struct(VirtualAccount)44580_storage": {
        "encoding": "inplace",
        "label": "struct EVVMCore.VirtualAccount",
        "members": [
          {
            "astId": 44575,
            "contract": "contracts/core/EVVM.core.sol:EVVMCore",
            "label": "balance",
            "offset": 0,
            "slot": "0",
            "type": "t_userDefinedValueType(euint64)49025"
          },
          {
            "astId": 44577,
            "contract": "contracts/core/EVVM.core.sol:EVVMCore",
            "label": "nonce",
            "offset": 0,
            "slot": "1",
            "type": "t_uint64"
          },
          {
            "astId": 44579,
            "contract": "contracts/core/EVVM.core.sol:EVVMCore",
            "label": "exists",
            "offset": 8,
            "slot": "1",
            "type": "t_bool"
          }
        ],
        "numberOfBytes": "64"
      },
      "t_struct(VirtualBlock)44622_storage": {
        "encoding": "inplace",
        "label": "struct EVVMCore.VirtualBlock",
        "members": [
          {
            "astId": 44613,
            "contract": "contracts/core/EVVM.core.sol:EVVMCore",
            "label": "blockNumber",
            "offset": 0,
            "slot": "0",
            "type": "t_uint64"
          },
          {
            "astId": 44615,
            "contract": "contracts/core/EVVM.core.sol:EVVMCore",
            "label": "stateCommitment",
            "offset": 0,
            "slot": "1",
            "type": "t_bytes32"
          },
          {
            "astId": 44617,
            "contract": "contracts/core/EVVM.core.sol:EVVMCore",
            "label": "timestamp",
            "offset": 0,
            "slot": "2",
            "type": "t_uint256"
          },
          {
            "astId": 44619,
            "contract": "contracts/core/EVVM.core.sol:EVVMCore",
            "label": "transactionCount",
            "offset": 0,
            "slot": "3",
            "type": "t_uint256"
          },
          {
            "astId": 44621,
            "contract": "contracts/core/EVVM.core.sol:EVVMCore",
            "label": "exists",
            "offset": 0,
            "slot": "4",
            "type": "t_bool"
          }
        ],
        "numberOfBytes": "160"
      },
      "t_struct(VirtualTransaction)44597_storage": {
        "encoding": "inplace",
        "label": "struct EVVMCore.VirtualTransaction",
        "members": [
          {
            "astId": 44583,
            "contract": "contracts/core/EVVM.core.sol:EVVMCore",
            "label": "fromVaddr",
            "offset": 0,
            "slot": "0",
            "type": "t_bytes32"
          },
          {
            "astId": 44585,
            "contract": "contracts/core/EVVM.core.sol:EVVMCore",
            "label": "toVaddr",
            "offset": 0,
            "slot": "1",
            "type": "t_bytes32"
          },
          {
            "astId": 44588,
            "contract": "contracts/core/EVVM.core.sol:EVVMCore",
            "label": "amountEnc",
            "offset": 0,
            "slot": "2",
            "type": "t_userDefinedValueType(euint64)49025"
          },
          {
            "astId": 44590,
            "contract": "contracts/core/EVVM.core.sol:EVVMCore",
            "label": "nonce",
            "offset": 0,
            "slot": "3",
            "type": "t_uint64"
          },
          {
            "astId": 44592,
            "contract": "contracts/core/EVVM.core.sol:EVVMCore",
            "label": "vBlockNumber",
            "offset": 8,
            "slot": "3",
            "type": "t_uint64"
          },
          {
            "astId": 44594,
            "contract": "contracts/core/EVVM.core.sol:EVVMCore",
            "label": "timestamp",
            "offset": 0,
            "slot": "4",
            "type": "t_uint256"
          },
          {
            "astId": 44596,
            "contract": "contracts/core/EVVM.core.sol:EVVMCore",
            "label": "exists",
            "offset": 0,
            "slot": "5",
            "type": "t_bool"
          }
        ],
        "numberOfBytes": "192"
      },
      "t_uint256": {
        "encoding": "inplace",
        "label": "uint256",
        "numberOfBytes": "32"
      },
      "t_uint64": {
        "encoding": "inplace",
        "label": "uint64",
        "numberOfBytes": "8"
      },
      "t_userDefinedValueType(euint64)49025": {
        "encoding": "inplace",
        "label": "euint64",
        "numberOfBytes": "32"
      },
      "t_userDefinedValueType(externalEuint64)49221": {
        "encoding": "inplace",
        "label": "externalEuint64",
        "numberOfBytes": "32"
      }
    }
  }
}